{
  "abi": [
    {
      "type": "constructor",
      "inputs": [
        {
          "name": "_feeRecipient",
          "type": "address",
          "internalType": "address"
        }
      ],
      "stateMutability": "nonpayable"
    },
    {
      "type": "function",
      "name": "acceptOwnership",
      "inputs": [],
      "outputs": [],
      "stateMutability": "nonpayable"
    },
    {
      "type": "function",
      "name": "createEscrow",
      "inputs": [
        {
          "name": "client",
          "type": "address",
          "internalType": "address"
        },
        {
          "name": "freelancer",
          "type": "address",
          "internalType": "address"
        },
        {
          "name": "tokenAddress",
          "type": "address",
          "internalType": "address"
        },
        {
          "name": "milestoneAmounts",
          "type": "uint256[]",
          "internalType": "uint256[]"
        },
        {
          "name": "platformFeeBasisPoints",
          "type": "uint256",
          "internalType": "uint256"
        }
      ],
      "outputs": [
        {
          "name": "escrowAddress",
          "type": "address",
          "internalType": "address"
        }
      ],
      "stateMutability": "nonpayable"
    },
    {
      "type": "function",
      "name": "feeRecipient",
      "inputs": [],
      "outputs": [
        {
          "name": "",
          "type": "address",
          "internalType": "address"
        }
      ],
      "stateMutability": "view"
    },
    {
      "type": "function",
      "name": "getAllEscrows",
      "inputs": [],
      "outputs": [
        {
          "name": "",
          "type": "address[]",
          "internalType": "address[]"
        }
      ],
      "stateMutability": "view"
    },
    {
      "type": "function",
      "name": "getEscrow",
      "inputs": [
        {
          "name": "index",
          "type": "uint256",
          "internalType": "uint256"
        }
      ],
      "outputs": [
        {
          "name": "",
          "type": "address",
          "internalType": "address"
        }
      ],
      "stateMutability": "view"
    },
    {
      "type": "function",
      "name": "getEscrowCount",
      "inputs": [],
      "outputs": [
        {
          "name": "",
          "type": "uint256",
          "internalType": "uint256"
        }
      ],
      "stateMutability": "view"
    },
    {
      "type": "function",
      "name": "owner",
      "inputs": [],
      "outputs": [
        {
          "name": "",
          "type": "address",
          "internalType": "address"
        }
      ],
      "stateMutability": "view"
    },
    {
      "type": "function",
      "name": "pendingOwner",
      "inputs": [],
      "outputs": [
        {
          "name": "",
          "type": "address",
          "internalType": "address"
        }
      ],
      "stateMutability": "view"
    },
    {
      "type": "function",
      "name": "proposeOwner",
      "inputs": [
        {
          "name": "newOwner",
          "type": "address",
          "internalType": "address"
        }
      ],
      "outputs": [],
      "stateMutability": "nonpayable"
    },
    {
      "type": "function",
      "name": "setFeeRecipient",
      "inputs": [
        {
          "name": "newRecipient",
          "type": "address",
          "internalType": "address"
        }
      ],
      "outputs": [],
      "stateMutability": "nonpayable"
    },
    {
      "type": "event",
      "name": "EscrowCreated",
      "inputs": [
        {
          "name": "escrowAddress",
          "type": "address",
          "indexed": true,
          "internalType": "address"
        },
        {
          "name": "client",
          "type": "address",
          "indexed": true,
          "internalType": "address"
        },
        {
          "name": "freelancer",
          "type": "address",
          "indexed": true,
          "internalType": "address"
        },
        {
          "name": "tokenAddress",
          "type": "address",
          "indexed": false,
          "internalType": "address"
        },
        {
          "name": "totalAmount",
          "type": "uint256",
          "indexed": false,
          "internalType": "uint256"
        }
      ],
      "anonymous": false
    },
    {
      "type": "event",
      "name": "FeeRecipientUpdated",
      "inputs": [
        {
          "name": "oldRecipient",
          "type": "address",
          "indexed": true,
          "internalType": "address"
        },
        {
          "name": "newRecipient",
          "type": "address",
          "indexed": true,
          "internalType": "address"
        }
      ],
      "anonymous": false
    },
    {
      "type": "event",
      "name": "OwnershipTransferProposed",
      "inputs": [
        {
          "name": "currentOwner",
          "type": "address",
          "indexed": true,
          "internalType": "address"
        },
        {
          "name": "pendingOwner",
          "type": "address",
          "indexed": true,
          "internalType": "address"
        }
      ],
      "anonymous": false
    },
    {
      "type": "event",
      "name": "OwnershipTransferred",
      "inputs": [
        {
          "name": "previousOwner",
          "type": "address",
          "indexed": true,
          "internalType": "address"
        },
        {
          "name": "newOwner",
          "type": "address",
          "indexed": true,
          "internalType": "address"
        }
      ],
      "anonymous": false
    },
    {
      "type": "error",
      "name": "ClientEqualsFreelancer",
      "inputs": []
    },
    {
      "type": "error",
      "name": "FeeTooHigh",
      "inputs": []
    },
    {
      "type": "error",
      "name": "InvalidClient",
      "inputs": []
    },
    {
      "type": "error",
      "name": "InvalidFeeRecipient",
      "inputs": []
    },
    {
      "type": "error",
      "name": "InvalidFreelancer",
      "inputs": []
    },
    {
      "type": "error",
      "name": "InvalidMilestones",
      "inputs": []
    },
    {
      "type": "error",
      "name": "OnlyOwner",
      "inputs": []
    },
    {
      "type": "error",
      "name": "OnlyPendingOwner",
      "inputs": []
    },
    {
      "type": "error",
      "name": "ZeroAddress",
      "inputs": []
    },
    {
      "type": "error",
      "name": "ZeroMilestoneAmount",
      "inputs": []
    }
  ],
  "bytecode": {
    "object": "0x608060405234801561000f575f80fd5b5060405161255438038061255483398101604081905261002e916100c6565b6001600160a01b0381166100945760405162461bcd60e51b8152602060048201526024808201527f457363726f77466163746f72793a20696e76616c6964206665652072656369706044820152631a595b9d60e21b606482015260840160405180910390fd5b5f8054336001600160a01b031991821617909155600280549091166001600160a01b03929092169190911790556100f3565b5f602082840312156100d6575f80fd5b81516001600160a01b03811681146100ec575f80fd5b9392505050565b612454806101005f395ff3fe608060405234801562000010575f80fd5b5060043610620000a8575f3560e01c80639a6ac36f116200006b5780639a6ac36f1462000125578063b5ed298a146200013e578063ce0d9ad71462000155578063e30c3978146200016c578063e74b981b1462000180575f80fd5b806316b1513514620000ac5780634690484014620000c257806379ba509714620000ef5780637d19e59614620000fb5780638da5cb5b1462000112575b5f80fd5b6003546040519081526020015b60405180910390f35b600254620000d6906001600160a01b031681565b6040516001600160a01b039091168152602001620000b9565b620000f962000197565b005b620000d66200010c36600462000722565b6200021c565b5f54620000d6906001600160a01b031681565b6200012f620002af565b604051620000b991906200073a565b620000f96200014f366004620007a4565b62000311565b620000d662000166366004620007c7565b620003b4565b600154620000d6906001600160a01b031681565b620000f962000191366004620007a4565b62000666565b6001546001600160a01b03163314620001c3576040516303c25d1960e61b815260040160405180910390fd5b5f8054600180546001600160a01b038082166001600160a01b031980861682178755909216909255604051919092169283917f8be0079c531659141344cd1fd0a4f28419497f9722a3daafe3b4186f6b6457e09190a350565b6003545f9082106200027f5760405162461bcd60e51b815260206004820152602260248201527f457363726f77466163746f72793a20696e646578206f7574206f6620626f756e604482015261647360f01b606482015260840160405180910390fd5b600382815481106200029557620002956200087a565b5f918252602090912001546001600160a01b031692915050565b606060038054806020026020016040519081016040528092919081815260200182805480156200030757602002820191905f5260205f20905b81546001600160a01b03168152600190910190602001808311620002e8575b5050505050905090565b5f546001600160a01b031633146200033c57604051635fc483c560e01b815260040160405180910390fd5b6001600160a01b038116620003645760405163d92e233d60e01b815260040160405180910390fd5b600180546001600160a01b0319166001600160a01b038381169182179092555f8054604051929316917ff4e75b79500ab730f8a026ed3cba6d55331bcb64c9e9f60c548e371356e5e3c09190a350565b5f80546001600160a01b03163314620003e057604051635fc483c560e01b815260040160405180910390fd5b6001600160a01b038716620004085760405163d92e233d60e01b815260040160405180910390fd5b6001600160a01b038616620004305760405163d92e233d60e01b815260040160405180910390fd5b856001600160a01b0316876001600160a01b031603620004635760405163f4ebc2ab60e01b815260040160405180910390fd5b5f839003620004855760405163d6befc1960e01b815260040160405180910390fd5b5f5b83811015620004d457848482818110620004a557620004a56200087a565b905060200201355f03620004cb5760405162238cb160e61b815260040160405180910390fd5b60010162000487565b506103e8821115620004f95760405163cd4e616760e01b815260040160405180910390fd5b6002545f805460405191928a928a928a928a928a928a926001600160a01b03908116929116906200052a9062000714565b6200053d9897969594939291906200088e565b604051809103905ff08015801562000557573d5f803e3d5ffd5b50600380546001810182555f919091527fc2575a0e9e593c00f959f8c92f12db2869c3395a3b0502d05e2516446f71f85b0180546001600160a01b0319166001600160a01b0383811691821790925560408051631a39d8ef60e01b815290519395508594508a831693928c16927f5110acfd33aad02838430d854a830e50cb07377fab40a6e84daeedb1b1513600918b918491631a39d8ef9160048083019260209291908290030181865afa15801562000613573d5f803e3d5ffd5b505050506040513d601f19601f8201168201806040525081019062000639919062000903565b604080516001600160a01b03909316835260208301919091520160405180910390a4509695505050505050565b5f546001600160a01b031633146200069157604051635fc483c560e01b815260040160405180910390fd5b6001600160a01b038116620006b957604051630ed1b8b360e31b815260040160405180910390fd5b6002546040516001600160a01b038084169216907faaebcf1bfa00580e41d966056b48521fa9f202645c86d4ddf28113e617c1b1d3905f90a3600280546001600160a01b0319166001600160a01b0392909216919091179055565b611b03806200091c83390190565b5f6020828403121562000733575f80fd5b5035919050565b602080825282518282018190525f9190848201906040850190845b818110156200077c5783516001600160a01b03168352928401929184019160010162000755565b50909695505050505050565b80356001600160a01b03811681146200079f575f80fd5b919050565b5f60208284031215620007b5575f80fd5b620007c08262000788565b9392505050565b5f805f805f8060a08789031215620007dd575f80fd5b620007e88762000788565b9550620007f86020880162000788565b9450620008086040880162000788565b9350606087013567ffffffffffffffff8082111562000825575f80fd5b818901915089601f83011262000839575f80fd5b81358181111562000848575f80fd5b8a60208260051b85010111156200085d575f80fd5b602083019550809450505050608087013590509295509295509295565b634e487b7160e01b5f52603260045260245ffd5b6001600160a01b0389811682528881166020830152878116604083015260e06060830181905282018690525f906101006001600160fb1b03881115620008d2575f80fd5b8760051b808a83870137608085019790975294811660a08401529290921660c0820152909201019695505050505050565b5f6020828403121562000914575f80fd5b505191905056fe61016060405234801562000011575f80fd5b5060405162001b0338038062001b03833981016040819052620000349162000471565b6001600160a01b038716620000905760405162461bcd60e51b815260206004820152601960248201527f476967457363726f773a20696e76616c696420636c69656e740000000000000060448201526064015b60405180910390fd5b6001600160a01b038616620000e85760405162461bcd60e51b815260206004820152601d60248201527f476967457363726f773a20696e76616c696420667265656c616e636572000000604482015260640162000087565b856001600160a01b0316876001600160a01b031603620001715760405162461bcd60e51b815260206004820152603b60248201527f476967457363726f773a20636c69656e7420616e6420667265656c616e63657260448201527f2063616e6e6f74206265207468652073616d6520616464726573730000000000606482015260840162000087565b6001600160a01b038216620001c95760405162461bcd60e51b815260206004820181905260248201527f476967457363726f773a20696e76616c69642066656520726563697069656e74604482015260640162000087565b6001600160a01b038116620002215760405162461bcd60e51b815260206004820152601d60248201527f476967457363726f773a20696e76616c69642061726269747261746f72000000604482015260640162000087565b5f845111620002735760405162461bcd60e51b815260206004820152601860248201527f476967457363726f773a206e6f206d696c6573746f6e65730000000000000000604482015260640162000087565b6103e8831115620002c75760405162461bcd60e51b815260206004820152601a60248201527f476967457363726f773a20666565206578636565647320313025000000000000604482015260640162000087565b6001600160a01b0380881660805286811660a05285811660c05261012084905282811660e0528116610100525f805b85518110156200042e575f8682815181106200031657620003166200059c565b602002602001015111620003795760405162461bcd60e51b815260206004820152602360248201527f476967457363726f773a206d696c6573746f6e6520616d6f756e74206973207a60448201526265726f60e81b606482015260840162000087565b8581815181106200038e576200038e6200059c565b602002602001015182620003a39190620005b0565b91506001868281518110620003bc57620003bc6200059c565b6020908102919091018101518254600180820185555f9485528385209091019190915560028054808301825593527f405787fa12a823e0f2b7631cc41b3ba8828b3321ca811111fa75cd3aa3bb5ace918304919091018054601f9093166101000a60ff021990921690915501620002f6565b506101405250620005d695505050505050565b80516001600160a01b038116811462000458575f80fd5b919050565b634e487b7160e01b5f52604160045260245ffd5b5f805f805f805f60e0888a03121562000488575f80fd5b620004938862000441565b96506020620004a4818a0162000441565b9650620004b460408a0162000441565b60608a01519096506001600160401b0380821115620004d1575f80fd5b818b0191508b601f830112620004e5575f80fd5b815181811115620004fa57620004fa6200045d565b8060051b604051601f19603f830116810181811085821117156200052257620005226200045d565b60405291825284820192508381018501918e83111562000540575f80fd5b938501935b82851015620005605784518452938501939285019262000545565b809950505050505050608088015192506200057e60a0890162000441565b91506200058e60c0890162000441565b905092959891949750929550565b634e487b7160e01b5f52603260045260245ffd5b80820180821115620005d057634e487b7160e01b5f52601160045260245ffd5b92915050565b60805160a05160c05160e051610100516101205161014051611417620006ec5f395f8181610201015281816109db01528181610a580152610b2601525f818161032c015261060401525f81816102340152610d2001525f81816103f301526106c201525f81816102880152818161043001528181610476015281816109ad01528181610a8001528181610b510152818161113301526111fc01525f81816102bb01528181610692015281816106ff0152818161079301528181610c0601528181610eed015261102501525f81816101a2015281816104f70152818161075f0152818161094a01528181610b7901528181610bd201528181610ced01528181610f1d01528181610ff1015261107001526114175ff3fe60806040526004361061011e575f3560e01c8063b94c475b1161009d578063db5d6c4111610062578063db5d6c4114610383578063de1acc5c146103a2578063e9945618146103ce578063eb13554f146103e2578063f3a504f214610415575f80fd5b8063b94c475b146102fc578063c58bfb661461031b578063cb1862ec1461034e578063d0e30db014610367578063db2e21bc1461036f575f80fd5b80636cc6cde1116100e35780636cc6cde114610223578063852ea203146102565780639d76ea5814610277578063a37dda2c146102aa578063a5c1674e146102dd575f80fd5b80630681ca55146101405780630b7e88d514610163578063109e94cf1461019157806312065fe0146101dc5780631a39d8ef146101f0575f80fd5b3661013c57604051630189589f60e51b815260040160405180910390fd5b5f80fd5b34801561014b575f80fd5b506002545b6040519081526020015b60405180910390f35b34801561016e575f80fd5b5060035461018190610100900460ff1681565b604051901515815260200161015a565b34801561019c575f80fd5b506101c47f000000000000000000000000000000000000000000000000000000000000000081565b6040516001600160a01b03909116815260200161015a565b3480156101e7575f80fd5b5061015061042d565b3480156101fb575f80fd5b506101507f000000000000000000000000000000000000000000000000000000000000000081565b34801561022e575f80fd5b506101c47f000000000000000000000000000000000000000000000000000000000000000081565b348015610261575f80fd5b50610275610270366004611288565b6104ec565b005b348015610282575f80fd5b506101c47f000000000000000000000000000000000000000000000000000000000000000081565b3480156102b5575f80fd5b506101c47f000000000000000000000000000000000000000000000000000000000000000081565b3480156102e8575f80fd5b506102756102f7366004611288565b610754565b348015610307575f80fd5b50610150610316366004611288565b6108f5565b348015610326575f80fd5b506101507f000000000000000000000000000000000000000000000000000000000000000081565b348015610359575f80fd5b506003546101819060ff1681565b61027561093f565b34801561037a575f80fd5b50610275610bc7565b34801561038e575f80fd5b5061027561039d36600461129f565b610d15565b3480156103ad575f80fd5b506103c16103bc366004611288565b610f87565b60405161015a91906112eb565b3480156103d9575f80fd5b50610275610fe6565b3480156103ed575f80fd5b506101c47f000000000000000000000000000000000000000000000000000000000000000081565b348015610420575f80fd5b505f546101819060ff1681565b5f7f00000000000000000000000000000000000000000000000000000000000000006001600160a01b031661046157504790565b6040516370a0823160e01b81523060048201527f00000000000000000000000000000000000000000000000000000000000000006001600160a01b0316906370a0823190602401602060405180830381865afa1580156104c3573d5f803e3d5ffd5b505050506040513d601f19601f820116820180604052508101906104e79190611305565b905090565b336001600160a01b037f000000000000000000000000000000000000000000000000000000000000000016146105355760405163d6d90f8960e01b815260040160405180910390fd5b5f5460ff1661055757604051636af784dd60e11b815260040160405180910390fd5b6002548190811061057b5760405163fdf4d87360e01b815260040160405180910390fd5b5f6002838154811061058f5761058f61131c565b905f5260205f2090602091828204019190069054906101000a900460ff1660038111156105be576105be6112d7565b146105dc576040516323a244ef60e11b815260040160405180910390fd5b5f600183815481106105f0576105f061131c565b5f91825260208220015491506127106106297f000000000000000000000000000000000000000000000000000000000000000084611344565b6106339190611361565b90505f6106408284611380565b90506001600286815481106106575761065761131c565b905f5260205f2090602091828204019190066101000a81548160ff02191690836003811115610688576106886112d7565b02179055506106b77f000000000000000000000000000000000000000000000000000000000000000082611131565b81156106e7576106e77f000000000000000000000000000000000000000000000000000000000000000083611131565b60408051828152602081018490526001600160a01b037f0000000000000000000000000000000000000000000000000000000000000000169187917f93e901cc5aea20ea9655887d9290a3215a5b3999c024812f4e4b749f7534349c910160405180910390a35050505050565b336001600160a01b037f000000000000000000000000000000000000000000000000000000000000000016148015906107b65750336001600160a01b037f00000000000000000000000000000000000000000000000000000000000000001614155b156107d45760405163f1d22b7560e01b815260040160405180910390fd5b5f5460ff166107f657604051636af784dd60e11b815260040160405180910390fd5b6002548190811061081a5760405163fdf4d87360e01b815260040160405180910390fd5b5f6002838154811061082e5761082e61131c565b905f5260205f2090602091828204019190069054906101000a900460ff16600381111561085d5761085d6112d7565b1461087b576040516323a244ef60e11b815260040160405180910390fd5b600280838154811061088f5761088f61131c565b905f5260205f2090602091828204019190066101000a81548160ff021916908360038111156108c0576108c06112d7565b0217905550604051339083907f84a477df8a28a4276ca6dee4458a06c3015f30c477d9c949ede4e13ff8a552b4905f90a35050565b6002545f908290811061091b5760405163fdf4d87360e01b815260040160405180910390fd5b6001838154811061092e5761092e61131c565b905f5260205f200154915050919050565b336001600160a01b037f000000000000000000000000000000000000000000000000000000000000000016146109885760405163d6d90f8960e01b815260040160405180910390fd5b5f5460ff16156109ab57604051635adf638760e01b815260040160405180910390fd5b7f00000000000000000000000000000000000000000000000000000000000000006001600160a01b0316610a1e577f00000000000000000000000000000000000000000000000000000000000000003414610a195760405163090ac0d760e21b815260040160405180910390fd5b610b14565b3415610a3d57604051630604024f60e21b815260040160405180910390fd5b6040516323b872dd60e01b81523360048201523060248201527f000000000000000000000000000000000000000000000000000000000000000060448201525f907f00000000000000000000000000000000000000000000000000000000000000006001600160a01b0316906323b872dd906064016020604051808303815f875af1158015610ace573d5f803e3d5ffd5b505050506040513d601f19601f82011682018060405250810190610af29190611393565b905080610b1257604051633c9fd93960e21b815260040160405180910390fd5b505b5f805460ff19166001179055604080517f000000000000000000000000000000000000000000000000000000000000000081526001600160a01b037f0000000000000000000000000000000000000000000000000000000000000000811660208301527f000000000000000000000000000000000000000000000000000000000000000016917ffd1cb3e06ec67f05d1020b4dfad39cdb06423270281743cddbe3eeb2c1167996910160405180910390a2565b336001600160a01b037f00000000000000000000000000000000000000000000000000000000000000001614801590610c295750336001600160a01b037f00000000000000000000000000000000000000000000000000000000000000001614155b15610c475760405163f1d22b7560e01b815260040160405180910390fd5b60035460ff161580610c615750600354610100900460ff16155b15610c7f57604051633ee9011760e11b815260040160405180910390fd5b5f610c8861042d565b9050805f03610caa576040516367e3990d60e01b815260040160405180910390fd5b6003805461ffff191690556040518181527fcbba13897c2ac3f7fdb11e857b1a5a5c47f51e3fbeffa74d430f2b06177b45c09060200160405180910390a1610d127f000000000000000000000000000000000000000000000000000000000000000082611131565b50565b336001600160a01b037f00000000000000000000000000000000000000000000000000000000000000001614610d5e57604051631777988560e11b815260040160405180910390fd5b5f5460ff16610d8057604051636af784dd60e11b815260040160405180910390fd5b60025483908110610da45760405163fdf4d87360e01b815260040160405180910390fd5b6002808581548110610db857610db861131c565b905f5260205f2090602091828204019190069054906101000a900460ff166003811115610de757610de76112d7565b14610e0557604051635c118f8b60e01b815260040160405180910390fd5b5f60018581548110610e1957610e1961131c565b5f91825260208220015491508080866002811115610e3957610e396112d7565b03610e4657829150610e97565b6001866002811115610e5a57610e5a6112d7565b03610e66575081610e97565b82851115610e87576040516318e382b560e01b815260040160405180910390fd5b849150610e948284611380565b90505b600360028881548110610eac57610eac61131c565b905f5260205f2090602091828204019190066101000a81548160ff02191690836003811115610edd57610edd6112d7565b02179055508115610f1257610f127f000000000000000000000000000000000000000000000000000000000000000083611131565b8015610f4257610f427f000000000000000000000000000000000000000000000000000000000000000082611131565b867faf541d32d08f610bc972c187e7df44798be3b0312f37495ac0513e31eff6467e878484604051610f76939291906113b9565b60405180910390a250505050505050565b6002545f9082908110610fad5760405163fdf4d87360e01b815260040160405180910390fd5b60028381548110610fc057610fc061131c565b905f5260205f2090602091828204019190069054906101000a900460ff16915050919050565b336001600160a01b037f000000000000000000000000000000000000000000000000000000000000000016148015906110485750336001600160a01b037f00000000000000000000000000000000000000000000000000000000000000001614155b156110665760405163f1d22b7560e01b815260040160405180910390fd5b6001600160a01b037f00000000000000000000000000000000000000000000000000000000000000001633036110cc5760035460ff16156110ba5760405163585eb56560e11b815260040160405180910390fd5b6003805460ff19166001179055611105565b600354610100900460ff16156110f55760405163585eb56560e11b815260040160405180910390fd5b6003805461ff0019166101001790555b60405133907f257a7e1003ab7197c6aedb9a69d812fef879fef3226f18f621eedcfffa4fc6f3905f90a2565b7f00000000000000000000000000000000000000000000000000000000000000006001600160a01b03166111d4575f826001600160a01b0316826040515f6040518083038185875af1925050503d805f81146111a8576040519150601f19603f3d011682016040523d82523d5f602084013e6111ad565b606091505b50509050806111cf5760405163b12d13eb60e01b815260040160405180910390fd5b505050565b60405163a9059cbb60e01b81526001600160a01b038381166004830152602482018390525f917f00000000000000000000000000000000000000000000000000000000000000009091169063a9059cbb906044016020604051808303815f875af1158015611244573d5f803e3d5ffd5b505050506040513d601f19601f820116820180604052508101906112689190611393565b9050806111cf57604051633c9fd93960e21b815260040160405180910390fd5b5f60208284031215611298575f80fd5b5035919050565b5f805f606084860312156112b1575f80fd5b833592506020840135600381106112c6575f80fd5b929592945050506040919091013590565b634e487b7160e01b5f52602160045260245ffd5b60208101600483106112ff576112ff6112d7565b91905290565b5f60208284031215611315575f80fd5b5051919050565b634e487b7160e01b5f52603260045260245ffd5b634e487b7160e01b5f52601160045260245ffd5b808202811582820484141761135b5761135b611330565b92915050565b5f8261137b57634e487b7160e01b5f52601260045260245ffd5b500490565b8181038181111561135b5761135b611330565b5f602082840312156113a3575f80fd5b815180151581146113b2575f80fd5b9392505050565b60608101600385106113cd576113cd6112d7565b93815260208101929092526040909101529056fea26469706673582212204f0bd03ec4767f7a2a1e8db61063b8805ad9759d93bf6fa39a64f5d03026ccd764736f6c63430008180033a26469706673582212204696a0f7c53310de62fbd4e4ad095ea2869db5308090424b45627121f02dc42b64736f6c63430008180033",
    "linkReferences": {}
  },
  "methodIdentifiers": {
    "acceptOwnership()": "79ba5097",
    "createEscrow(address,address,address,uint256[],uint256)": "ce0d9ad7",
    "feeRecipient()": "46904840",
    "getAllEscrows()": "9a6ac36f",
    "getEscrow(uint256)": "7d19e596",
    "getEscrowCount()": "16b15135",
    "owner()": "8da5cb5b",
    "pendingOwner()": "e30c3978",
    "proposeOwner(address)": "b5ed298a",
    "setFeeRecipient(address)": "e74b981b"
  },
  "id": 22
}