{
  "abi": [
    {
      "type": "constructor",
      "inputs": [
        {
          "name": "_feeRecipient",
          "type": "address",
          "internalType": "address"
        }
      ],
      "stateMutability": "nonpayable"
    },
    {
      "type": "function",
      "name": "createEscrow",
      "inputs": [
        {
          "name": "client",
          "type": "address",
          "internalType": "address"
        },
        {
          "name": "freelancer",
          "type": "address",
          "internalType": "address"
        },
        {
          "name": "tokenAddress",
          "type": "address",
          "internalType": "address"
        },
        {
          "name": "milestoneAmounts",
          "type": "uint256[]",
          "internalType": "uint256[]"
        },
        {
          "name": "platformFeeBasisPoints",
          "type": "uint256",
          "internalType": "uint256"
        }
      ],
      "outputs": [
        {
          "name": "escrowAddress",
          "type": "address",
          "internalType": "address"
        }
      ],
      "stateMutability": "nonpayable"
    },
    {
      "type": "function",
      "name": "feeRecipient",
      "inputs": [],
      "outputs": [
        {
          "name": "",
          "type": "address",
          "internalType": "address"
        }
      ],
      "stateMutability": "view"
    },
    {
      "type": "function",
      "name": "getAllEscrows",
      "inputs": [],
      "outputs": [
        {
          "name": "",
          "type": "address[]",
          "internalType": "address[]"
        }
      ],
      "stateMutability": "view"
    },
    {
      "type": "function",
      "name": "owner",
      "inputs": [],
      "outputs": [
        {
          "name": "",
          "type": "address",
          "internalType": "address"
        }
      ],
      "stateMutability": "view"
    },
    {
      "type": "function",
      "name": "setFeeRecipient",
      "inputs": [
        {
          "name": "newRecipient",
          "type": "address",
          "internalType": "address"
        }
      ],
      "outputs": [],
      "stateMutability": "nonpayable"
    },
    {
      "type": "function",
      "name": "transferOwnership",
      "inputs": [
        {
          "name": "newOwner",
          "type": "address",
          "internalType": "address"
        }
      ],
      "outputs": [],
      "stateMutability": "nonpayable"
    },
    {
      "type": "event",
      "name": "EscrowCreated",
      "inputs": [
        {
          "name": "escrowAddress",
          "type": "address",
          "indexed": true,
          "internalType": "address"
        },
        {
          "name": "client",
          "type": "address",
          "indexed": true,
          "internalType": "address"
        },
        {
          "name": "freelancer",
          "type": "address",
          "indexed": true,
          "internalType": "address"
        },
        {
          "name": "tokenAddress",
          "type": "address",
          "indexed": false,
          "internalType": "address"
        },
        {
          "name": "totalAmount",
          "type": "uint256",
          "indexed": false,
          "internalType": "uint256"
        }
      ],
      "anonymous": false
    },
    {
      "type": "event",
      "name": "FeeRecipientUpdated",
      "inputs": [
        {
          "name": "oldRecipient",
          "type": "address",
          "indexed": true,
          "internalType": "address"
        },
        {
          "name": "newRecipient",
          "type": "address",
          "indexed": true,
          "internalType": "address"
        }
      ],
      "anonymous": false
    },
    {
      "type": "error",
      "name": "InvalidClient",
      "inputs": []
    },
    {
      "type": "error",
      "name": "InvalidFeeRecipient",
      "inputs": []
    },
    {
      "type": "error",
      "name": "InvalidFreelancer",
      "inputs": []
    },
    {
      "type": "error",
      "name": "OnlyOwner",
      "inputs": []
    }
  ],
  "bytecode": {
    "object": "0x608060405234801561000f575f80fd5b506040516121a83803806121a883398101604081905261002e916100c6565b6001600160a01b0381166100945760405162461bcd60e51b8152602060048201526024808201527f457363726f77466163746f72793a20696e76616c6964206665652072656369706044820152631a595b9d60e21b606482015260840160405180910390fd5b5f8054336001600160a01b031991821617909155600180549091166001600160a01b03929092169190911790556100f3565b5f602082840312156100d6575f80fd5b81516001600160a01b03811681146100ec575f80fd5b9392505050565b6120a8806101005f395ff3fe608060405234801562000010575f80fd5b506004361062000068575f3560e01c806346904840146200006c5780638da5cb5b146200009d5780639a6ac36f14620000b0578063ce0d9ad714620000c9578063e74b981b14620000e0578063f2fde38b14620000f9575b5f80fd5b60015462000080906001600160a01b031681565b6040516001600160a01b0390911681526020015b60405180910390f35b5f5462000080906001600160a01b031681565b620000ba62000110565b6040516200009491906200046f565b62000080620000da366004620004d9565b62000172565b620000f7620000f13660046200058c565b6200030c565b005b620000f76200010a3660046200058c565b620003ba565b606060028054806020026020016040519081016040528092919081815260200182805480156200016857602002820191905f5260205f20905b81546001600160a01b0316815260019091019060200180831162000149575b5050505050905090565b5f6001600160a01b0387166200019b57604051631b528a2560e31b815260040160405180910390fd5b6001600160a01b038616620001c357604051633ad7719360e11b815260040160405180910390fd5b6001545f805460405191928a928a928a928a928a928a926001600160a01b0390811692911690620001f49062000461565b62000207989796959493929190620005af565b604051809103905ff08015801562000221573d5f803e3d5ffd5b50600280546001810182555f9182527f405787fa12a823e0f2b7631cc41b3ba8828b3321ca811111fa75cd3aa3bb5ace0180546001600160a01b0319166001600160a01b038416179055909250829150805b85811015620002b05786868281811062000291576200029162000624565b9050602002013582620002a5919062000638565b915060010162000273565b50604080516001600160a01b03898116825260208201849052808b16928c821692918716917f5110acfd33aad02838430d854a830e50cb07377fab40a6e84daeedb1b1513600910160405180910390a450509695505050505050565b5f546001600160a01b031633146200033757604051635fc483c560e01b815260040160405180910390fd5b6001600160a01b0381166200035f57604051630ed1b8b360e31b815260040160405180910390fd5b6001546040516001600160a01b038084169216907faaebcf1bfa00580e41d966056b48521fa9f202645c86d4ddf28113e617c1b1d3905f90a3600180546001600160a01b0319166001600160a01b0392909216919091179055565b5f546001600160a01b03163314620003e557604051635fc483c560e01b815260040160405180910390fd5b6001600160a01b038116620004405760405162461bcd60e51b815260206004820181905260248201527f457363726f77466163746f72793a20696e76616c6964206e6577206f776e6572604482015260640160405180910390fd5b5f80546001600160a01b0319166001600160a01b0392909216919091179055565b611a14806200065f83390190565b602080825282518282018190525f9190848201906040850190845b81811015620004b15783516001600160a01b0316835292840192918401916001016200048a565b50909695505050505050565b80356001600160a01b0381168114620004d4575f80fd5b919050565b5f805f805f8060a08789031215620004ef575f80fd5b620004fa87620004bd565b95506200050a60208801620004bd565b94506200051a60408801620004bd565b9350606087013567ffffffffffffffff8082111562000537575f80fd5b818901915089601f8301126200054b575f80fd5b8135818111156200055a575f80fd5b8a60208260051b85010111156200056f575f80fd5b602083019550809450505050608087013590509295509295509295565b5f602082840312156200059d575f80fd5b620005a882620004bd565b9392505050565b6001600160a01b0389811682528881166020830152878116604083015260e06060830181905282018690525f906101006001600160fb1b03881115620005f3575f80fd5b8760051b808a83870137608085019790975294811660a08401529290921660c0820152909201019695505050505050565b634e487b7160e01b5f52603260045260245ffd5b808201808211156200065857634e487b7160e01b5f52601160045260245ffd5b9291505056fe61016060405234801562000011575f80fd5b5060405162001a1438038062001a148339810160408190526200003491620003e8565b6001600160a01b038716620000905760405162461bcd60e51b815260206004820152601960248201527f476967457363726f773a20696e76616c696420636c69656e740000000000000060448201526064015b60405180910390fd5b6001600160a01b038616620000e85760405162461bcd60e51b815260206004820152601d60248201527f476967457363726f773a20696e76616c696420667265656c616e636572000000604482015260640162000087565b6001600160a01b038216620001405760405162461bcd60e51b815260206004820181905260248201527f476967457363726f773a20696e76616c69642066656520726563697069656e74604482015260640162000087565b6001600160a01b038116620001985760405162461bcd60e51b815260206004820152601d60248201527f476967457363726f773a20696e76616c69642061726269747261746f72000000604482015260640162000087565b5f845111620001ea5760405162461bcd60e51b815260206004820152601860248201527f476967457363726f773a206e6f206d696c6573746f6e65730000000000000000604482015260640162000087565b6103e88311156200023e5760405162461bcd60e51b815260206004820152601a60248201527f476967457363726f773a20666565206578636565647320313025000000000000604482015260640162000087565b6001600160a01b0380881660805286811660a05285811660c05261012084905282811660e0528116610100525f805b8551811015620003a5575f8682815181106200028d576200028d62000513565b602002602001015111620002f05760405162461bcd60e51b815260206004820152602360248201527f476967457363726f773a206d696c6573746f6e6520616d6f756e74206973207a60448201526265726f60e81b606482015260840162000087565b85818151811062000305576200030562000513565b6020026020010151826200031a919062000527565b9150600186828151811062000333576200033362000513565b6020908102919091018101518254600180820185555f9485528385209091019190915560028054808301825593527f405787fa12a823e0f2b7631cc41b3ba8828b3321ca811111fa75cd3aa3bb5ace918304919091018054601f9093166101000a60ff0219909216909155016200026d565b5061014052506200054d95505050505050565b80516001600160a01b0381168114620003cf575f80fd5b919050565b634e487b7160e01b5f52604160045260245ffd5b5f805f805f805f60e0888a031215620003ff575f80fd5b6200040a88620003b8565b965060206200041b818a01620003b8565b96506200042b60408a01620003b8565b60608a01519096506001600160401b038082111562000448575f80fd5b818b0191508b601f8301126200045c575f80fd5b815181811115620004715762000471620003d4565b8060051b604051601f19603f83011681018181108582111715620004995762000499620003d4565b60405291825284820192508381018501918e831115620004b7575f80fd5b938501935b82851015620004d757845184529385019392850192620004bc565b80995050505050505060808801519250620004f560a08901620003b8565b91506200050560c08901620003b8565b905092959891949750929550565b634e487b7160e01b5f52603260045260245ffd5b808201808211156200054757634e487b7160e01b5f52601160045260245ffd5b92915050565b60805160a05160c05160e0516101005161012051610140516113bf620006555f395f818161023401528181610a0e01528181610a8b0152610b5901525f818161035f015261063701525f81816102670152610cc801525f818161042601526106f501525f81816102bb01528181610463015281816104a9015281816109e001528181610ab301528181610b84015281816110db01526111a401525f81816102ee015281816106c501528181610732015281816107c601528181610e950152610fcd01525f81816101d50152818161052a015281816107920152818161097d01528181610bac01528181610c9501528181610ec501528181610f99015261101801526113bf5ff3fe60806040526004361061011e575f3560e01c8063b94c475b1161009d578063db5d6c4111610062578063db5d6c41146103b6578063de1acc5c146103d5578063e994561814610401578063eb13554f14610415578063f3a504f214610448575f80fd5b8063b94c475b1461032f578063c58bfb661461034e578063cb1862ec14610381578063d0e30db01461039a578063db2e21bc146103a2575f80fd5b80636cc6cde1116100e35780636cc6cde114610256578063852ea203146102895780639d76ea58146102aa578063a37dda2c146102dd578063a5c1674e14610310575f80fd5b80630681ca55146101735780630b7e88d514610196578063109e94cf146101c457806312065fe01461020f5780631a39d8ef14610223575f80fd5b3661016f5760405162461bcd60e51b815260206004820152601860248201527f476967457363726f773a20757365206465706f73697428290000000000000000604482015260640160405180910390fd5b5f80fd5b34801561017e575f80fd5b506002545b6040519081526020015b60405180910390f35b3480156101a1575f80fd5b506003546101b490610100900460ff1681565b604051901515815260200161018d565b3480156101cf575f80fd5b506101f77f000000000000000000000000000000000000000000000000000000000000000081565b6040516001600160a01b03909116815260200161018d565b34801561021a575f80fd5b50610183610460565b34801561022e575f80fd5b506101837f000000000000000000000000000000000000000000000000000000000000000081565b348015610261575f80fd5b506101f77f000000000000000000000000000000000000000000000000000000000000000081565b348015610294575f80fd5b506102a86102a3366004611230565b61051f565b005b3480156102b5575f80fd5b506101f77f000000000000000000000000000000000000000000000000000000000000000081565b3480156102e8575f80fd5b506101f77f000000000000000000000000000000000000000000000000000000000000000081565b34801561031b575f80fd5b506102a861032a366004611230565b610787565b34801561033a575f80fd5b50610183610349366004611230565b610928565b348015610359575f80fd5b506101837f000000000000000000000000000000000000000000000000000000000000000081565b34801561038c575f80fd5b506003546101b49060ff1681565b6102a8610972565b3480156103ad575f80fd5b506102a8610bfa565b3480156103c1575f80fd5b506102a86103d0366004611247565b610cbd565b3480156103e0575f80fd5b506103f46103ef366004611230565b610f2f565b60405161018d9190611293565b34801561040c575f80fd5b506102a8610f8e565b348015610420575f80fd5b506101f77f000000000000000000000000000000000000000000000000000000000000000081565b348015610453575f80fd5b505f546101b49060ff1681565b5f7f00000000000000000000000000000000000000000000000000000000000000006001600160a01b031661049457504790565b6040516370a0823160e01b81523060048201527f00000000000000000000000000000000000000000000000000000000000000006001600160a01b0316906370a0823190602401602060405180830381865afa1580156104f6573d5f803e3d5ffd5b505050506040513d601f19601f8201168201806040525081019061051a91906112ad565b905090565b336001600160a01b037f000000000000000000000000000000000000000000000000000000000000000016146105685760405163d6d90f8960e01b815260040160405180910390fd5b5f5460ff1661058a57604051636af784dd60e11b815260040160405180910390fd5b600254819081106105ae5760405163fdf4d87360e01b815260040160405180910390fd5b5f600283815481106105c2576105c26112c4565b905f5260205f2090602091828204019190069054906101000a900460ff1660038111156105f1576105f161127f565b1461060f576040516323a244ef60e11b815260040160405180910390fd5b5f60018381548110610623576106236112c4565b5f918252602082200154915061271061065c7f0000000000000000000000000000000000000000000000000000000000000000846112ec565b6106669190611309565b90505f6106738284611328565b905060016002868154811061068a5761068a6112c4565b905f5260205f2090602091828204019190066101000a81548160ff021916908360038111156106bb576106bb61127f565b02179055506106ea7f0000000000000000000000000000000000000000000000000000000000000000826110d9565b811561071a5761071a7f0000000000000000000000000000000000000000000000000000000000000000836110d9565b60408051828152602081018490526001600160a01b037f0000000000000000000000000000000000000000000000000000000000000000169187917f93e901cc5aea20ea9655887d9290a3215a5b3999c024812f4e4b749f7534349c910160405180910390a35050505050565b336001600160a01b037f000000000000000000000000000000000000000000000000000000000000000016148015906107e95750336001600160a01b037f00000000000000000000000000000000000000000000000000000000000000001614155b156108075760405163f1d22b7560e01b815260040160405180910390fd5b5f5460ff1661082957604051636af784dd60e11b815260040160405180910390fd5b6002548190811061084d5760405163fdf4d87360e01b815260040160405180910390fd5b5f60028381548110610861576108616112c4565b905f5260205f2090602091828204019190069054906101000a900460ff1660038111156108905761089061127f565b146108ae576040516323a244ef60e11b815260040160405180910390fd5b60028083815481106108c2576108c26112c4565b905f5260205f2090602091828204019190066101000a81548160ff021916908360038111156108f3576108f361127f565b0217905550604051339083907f84a477df8a28a4276ca6dee4458a06c3015f30c477d9c949ede4e13ff8a552b4905f90a35050565b6002545f908290811061094e5760405163fdf4d87360e01b815260040160405180910390fd5b60018381548110610961576109616112c4565b905f5260205f200154915050919050565b336001600160a01b037f000000000000000000000000000000000000000000000000000000000000000016146109bb5760405163d6d90f8960e01b815260040160405180910390fd5b5f5460ff16156109de57604051635adf638760e01b815260040160405180910390fd5b7f00000000000000000000000000000000000000000000000000000000000000006001600160a01b0316610a51577f00000000000000000000000000000000000000000000000000000000000000003414610a4c5760405163090ac0d760e21b815260040160405180910390fd5b610b47565b3415610a7057604051630604024f60e21b815260040160405180910390fd5b6040516323b872dd60e01b81523360048201523060248201527f000000000000000000000000000000000000000000000000000000000000000060448201525f907f00000000000000000000000000000000000000000000000000000000000000006001600160a01b0316906323b872dd906064016020604051808303815f875af1158015610b01573d5f803e3d5ffd5b505050506040513d601f19601f82011682018060405250810190610b25919061133b565b905080610b4557604051633c9fd93960e21b815260040160405180910390fd5b505b5f805460ff19166001179055604080517f000000000000000000000000000000000000000000000000000000000000000081526001600160a01b037f0000000000000000000000000000000000000000000000000000000000000000811660208301527f000000000000000000000000000000000000000000000000000000000000000016917ffd1cb3e06ec67f05d1020b4dfad39cdb06423270281743cddbe3eeb2c1167996910160405180910390a2565b60035460ff161580610c145750600354610100900460ff16155b15610c3257604051633ee9011760e11b815260040160405180910390fd5b5f610c3b610460565b9050805f03610c5d576040516367e3990d60e01b815260040160405180910390fd5b6040518181527fcbba13897c2ac3f7fdb11e857b1a5a5c47f51e3fbeffa74d430f2b06177b45c09060200160405180910390a1610cba7f0000000000000000000000000000000000000000000000000000000000000000826110d9565b50565b336001600160a01b037f00000000000000000000000000000000000000000000000000000000000000001614610d0657604051631777988560e11b815260040160405180910390fd5b5f5460ff16610d2857604051636af784dd60e11b815260040160405180910390fd5b60025483908110610d4c5760405163fdf4d87360e01b815260040160405180910390fd5b6002808581548110610d6057610d606112c4565b905f5260205f2090602091828204019190069054906101000a900460ff166003811115610d8f57610d8f61127f565b14610dad57604051635c118f8b60e01b815260040160405180910390fd5b5f60018581548110610dc157610dc16112c4565b5f91825260208220015491508080866002811115610de157610de161127f565b03610dee57829150610e3f565b6001866002811115610e0257610e0261127f565b03610e0e575081610e3f565b82851115610e2f576040516318e382b560e01b815260040160405180910390fd5b849150610e3c8284611328565b90505b600360028881548110610e5457610e546112c4565b905f5260205f2090602091828204019190066101000a81548160ff02191690836003811115610e8557610e8561127f565b02179055508115610eba57610eba7f0000000000000000000000000000000000000000000000000000000000000000836110d9565b8015610eea57610eea7f0000000000000000000000000000000000000000000000000000000000000000826110d9565b867faf541d32d08f610bc972c187e7df44798be3b0312f37495ac0513e31eff6467e878484604051610f1e93929190611361565b60405180910390a250505050505050565b6002545f9082908110610f555760405163fdf4d87360e01b815260040160405180910390fd5b60028381548110610f6857610f686112c4565b905f5260205f2090602091828204019190069054906101000a900460ff16915050919050565b336001600160a01b037f00000000000000000000000000000000000000000000000000000000000000001614801590610ff05750336001600160a01b037f00000000000000000000000000000000000000000000000000000000000000001614155b1561100e5760405163f1d22b7560e01b815260040160405180910390fd5b6001600160a01b037f00000000000000000000000000000000000000000000000000000000000000001633036110745760035460ff16156110625760405163585eb56560e11b815260040160405180910390fd5b6003805460ff191660011790556110ad565b600354610100900460ff161561109d5760405163585eb56560e11b815260040160405180910390fd5b6003805461ff0019166101001790555b60405133907f257a7e1003ab7197c6aedb9a69d812fef879fef3226f18f621eedcfffa4fc6f3905f90a2565b7f00000000000000000000000000000000000000000000000000000000000000006001600160a01b031661117c575f826001600160a01b0316826040515f6040518083038185875af1925050503d805f8114611150576040519150601f19603f3d011682016040523d82523d5f602084013e611155565b606091505b50509050806111775760405163b12d13eb60e01b815260040160405180910390fd5b505050565b60405163a9059cbb60e01b81526001600160a01b038381166004830152602482018390525f917f00000000000000000000000000000000000000000000000000000000000000009091169063a9059cbb906044016020604051808303815f875af11580156111ec573d5f803e3d5ffd5b505050506040513d601f19601f82011682018060405250810190611210919061133b565b90508061117757604051633c9fd93960e21b815260040160405180910390fd5b5f60208284031215611240575f80fd5b5035919050565b5f805f60608486031215611259575f80fd5b8335925060208401356003811061126e575f80fd5b929592945050506040919091013590565b634e487b7160e01b5f52602160045260245ffd5b60208101600483106112a7576112a761127f565b91905290565b5f602082840312156112bd575f80fd5b5051919050565b634e487b7160e01b5f52603260045260245ffd5b634e487b7160e01b5f52601160045260245ffd5b8082028115828204841417611303576113036112d8565b92915050565b5f8261132357634e487b7160e01b5f52601260045260245ffd5b500490565b81810381811115611303576113036112d8565b5f6020828403121561134b575f80fd5b8151801515811461135a575f80fd5b9392505050565b60608101600385106113755761137561127f565b93815260208101929092526040909101529056fea26469706673582212205e47fb8f6537eba7b595e9c66dabeb4e73d5fa270002cb0c591b20b6041a0b9b64736f6c63430008180033a264697066735822122027a79d29c688cc89de0c1e12c4e9d0de8e82f8b01ac4f3598c35fb168c6db18364736f6c63430008180033",
    "linkReferences": {}
  },
  "methodIdentifiers": {
    "createEscrow(address,address,address,uint256[],uint256)": "ce0d9ad7",
    "feeRecipient()": "46904840",
    "getAllEscrows()": "9a6ac36f",
    "owner()": "8da5cb5b",
    "setFeeRecipient(address)": "e74b981b",
    "transferOwnership(address)": "f2fde38b"
  },
  "id": 22
}