{
  "abi": [
    {
      "type": "constructor",
      "inputs": [
        {
          "name": "_client",
          "type": "address",
          "internalType": "address"
        },
        {
          "name": "_freelancer",
          "type": "address",
          "internalType": "address"
        },
        {
          "name": "_tokenAddress",
          "type": "address",
          "internalType": "address"
        },
        {
          "name": "amounts",
          "type": "uint256[]",
          "internalType": "uint256[]"
        },
        {
          "name": "_platformFeeBps",
          "type": "uint256",
          "internalType": "uint256"
        },
        {
          "name": "_platformFeeRecipient",
          "type": "address",
          "internalType": "address"
        },
        {
          "name": "_arbitrator",
          "type": "address",
          "internalType": "address"
        }
      ],
      "stateMutability": "nonpayable"
    },
    {
      "type": "receive",
      "stateMutability": "payable"
    },
    {
      "type": "function",
      "name": "arbitrator",
      "inputs": [],
      "outputs": [
        {
          "name": "",
          "type": "address",
          "internalType": "address"
        }
      ],
      "stateMutability": "view"
    },
    {
      "type": "function",
      "name": "client",
      "inputs": [],
      "outputs": [
        {
          "name": "",
          "type": "address",
          "internalType": "address"
        }
      ],
      "stateMutability": "view"
    },
    {
      "type": "function",
      "name": "clientSignedEmergency",
      "inputs": [],
      "outputs": [
        {
          "name": "",
          "type": "bool",
          "internalType": "bool"
        }
      ],
      "stateMutability": "view"
    },
    {
      "type": "function",
      "name": "completeMilestone",
      "inputs": [
        {
          "name": "index",
          "type": "uint256",
          "internalType": "uint256"
        }
      ],
      "outputs": [],
      "stateMutability": "nonpayable"
    },
    {
      "type": "function",
      "name": "deposit",
      "inputs": [],
      "outputs": [],
      "stateMutability": "payable"
    },
    {
      "type": "function",
      "name": "emergencyWithdraw",
      "inputs": [],
      "outputs": [],
      "stateMutability": "nonpayable"
    },
    {
      "type": "function",
      "name": "freelancer",
      "inputs": [],
      "outputs": [
        {
          "name": "",
          "type": "address",
          "internalType": "address"
        }
      ],
      "stateMutability": "view"
    },
    {
      "type": "function",
      "name": "freelancerSignedEmergency",
      "inputs": [],
      "outputs": [
        {
          "name": "",
          "type": "bool",
          "internalType": "bool"
        }
      ],
      "stateMutability": "view"
    },
    {
      "type": "function",
      "name": "funded",
      "inputs": [],
      "outputs": [
        {
          "name": "",
          "type": "bool",
          "internalType": "bool"
        }
      ],
      "stateMutability": "view"
    },
    {
      "type": "function",
      "name": "getBalance",
      "inputs": [],
      "outputs": [
        {
          "name": "",
          "type": "uint256",
          "internalType": "uint256"
        }
      ],
      "stateMutability": "view"
    },
    {
      "type": "function",
      "name": "getMilestoneAmount",
      "inputs": [
        {
          "name": "index",
          "type": "uint256",
          "internalType": "uint256"
        }
      ],
      "outputs": [
        {
          "name": "",
          "type": "uint256",
          "internalType": "uint256"
        }
      ],
      "stateMutability": "view"
    },
    {
      "type": "function",
      "name": "getMilestoneStatus",
      "inputs": [
        {
          "name": "index",
          "type": "uint256",
          "internalType": "uint256"
        }
      ],
      "outputs": [
        {
          "name": "",
          "type": "uint8",
          "internalType": "enum IGigEscrow.MilestoneStatus"
        }
      ],
      "stateMutability": "view"
    },
    {
      "type": "function",
      "name": "milestoneCount",
      "inputs": [],
      "outputs": [
        {
          "name": "",
          "type": "uint256",
          "internalType": "uint256"
        }
      ],
      "stateMutability": "view"
    },
    {
      "type": "function",
      "name": "platformFeeBasisPoints",
      "inputs": [],
      "outputs": [
        {
          "name": "",
          "type": "uint256",
          "internalType": "uint256"
        }
      ],
      "stateMutability": "view"
    },
    {
      "type": "function",
      "name": "platformFeeRecipient",
      "inputs": [],
      "outputs": [
        {
          "name": "",
          "type": "address",
          "internalType": "address"
        }
      ],
      "stateMutability": "view"
    },
    {
      "type": "function",
      "name": "raiseDispute",
      "inputs": [
        {
          "name": "index",
          "type": "uint256",
          "internalType": "uint256"
        }
      ],
      "outputs": [],
      "stateMutability": "nonpayable"
    },
    {
      "type": "function",
      "name": "resolveDispute",
      "inputs": [
        {
          "name": "index",
          "type": "uint256",
          "internalType": "uint256"
        },
        {
          "name": "resolution",
          "type": "uint8",
          "internalType": "enum IGigEscrow.DisputeResolution"
        },
        {
          "name": "freelancerSplitAmount",
          "type": "uint256",
          "internalType": "uint256"
        }
      ],
      "outputs": [],
      "stateMutability": "nonpayable"
    },
    {
      "type": "function",
      "name": "signEmergencyWithdrawal",
      "inputs": [],
      "outputs": [],
      "stateMutability": "nonpayable"
    },
    {
      "type": "function",
      "name": "tokenAddress",
      "inputs": [],
      "outputs": [
        {
          "name": "",
          "type": "address",
          "internalType": "address"
        }
      ],
      "stateMutability": "view"
    },
    {
      "type": "function",
      "name": "totalAmount",
      "inputs": [],
      "outputs": [
        {
          "name": "",
          "type": "uint256",
          "internalType": "uint256"
        }
      ],
      "stateMutability": "view"
    },
    {
      "type": "event",
      "name": "DisputeRaised",
      "inputs": [
        {
          "name": "milestoneIndex",
          "type": "uint256",
          "indexed": true,
          "internalType": "uint256"
        },
        {
          "name": "raisedBy",
          "type": "address",
          "indexed": true,
          "internalType": "address"
        }
      ],
      "anonymous": false
    },
    {
      "type": "event",
      "name": "DisputeResolved",
      "inputs": [
        {
          "name": "milestoneIndex",
          "type": "uint256",
          "indexed": true,
          "internalType": "uint256"
        },
        {
          "name": "resolution",
          "type": "uint8",
          "indexed": false,
          "internalType": "enum IGigEscrow.DisputeResolution"
        },
        {
          "name": "freelancerAmount",
          "type": "uint256",
          "indexed": false,
          "internalType": "uint256"
        },
        {
          "name": "clientAmount",
          "type": "uint256",
          "indexed": false,
          "internalType": "uint256"
        }
      ],
      "anonymous": false
    },
    {
      "type": "event",
      "name": "EmergencyWithdrawal",
      "inputs": [
        {
          "name": "clientAmount",
          "type": "uint256",
          "indexed": false,
          "internalType": "uint256"
        }
      ],
      "anonymous": false
    },
    {
      "type": "event",
      "name": "EmergencyWithdrawalSigned",
      "inputs": [
        {
          "name": "signer",
          "type": "address",
          "indexed": true,
          "internalType": "address"
        }
      ],
      "anonymous": false
    },
    {
      "type": "event",
      "name": "EscrowFunded",
      "inputs": [
        {
          "name": "client",
          "type": "address",
          "indexed": true,
          "internalType": "address"
        },
        {
          "name": "totalAmount",
          "type": "uint256",
          "indexed": false,
          "internalType": "uint256"
        },
        {
          "name": "tokenAddress",
          "type": "address",
          "indexed": false,
          "internalType": "address"
        }
      ],
      "anonymous": false
    },
    {
      "type": "event",
      "name": "FundsReleased",
      "inputs": [
        {
          "name": "milestoneIndex",
          "type": "uint256",
          "indexed": true,
          "internalType": "uint256"
        },
        {
          "name": "freelancer",
          "type": "address",
          "indexed": true,
          "internalType": "address"
        },
        {
          "name": "netAmount",
          "type": "uint256",
          "indexed": false,
          "internalType": "uint256"
        },
        {
          "name": "platformFeeAmount",
          "type": "uint256",
          "indexed": false,
          "internalType": "uint256"
        }
      ],
      "anonymous": false
    },
    {
      "type": "error",
      "name": "AlreadyFunded",
      "inputs": []
    },
    {
      "type": "error",
      "name": "AlreadySigned",
      "inputs": []
    },
    {
      "type": "error",
      "name": "ERC20TransferFailed",
      "inputs": []
    },
    {
      "type": "error",
      "name": "ETHTransferFailed",
      "inputs": []
    },
    {
      "type": "error",
      "name": "InvalidETHAmount",
      "inputs": []
    },
    {
      "type": "error",
      "name": "InvalidMilestoneIndex",
      "inputs": []
    },
    {
      "type": "error",
      "name": "MilestoneNotDisputed",
      "inputs": []
    },
    {
      "type": "error",
      "name": "MilestoneNotPending",
      "inputs": []
    },
    {
      "type": "error",
      "name": "NoETHForERC20",
      "inputs": []
    },
    {
      "type": "error",
      "name": "NoFundsToWithdraw",
      "inputs": []
    },
    {
      "type": "error",
      "name": "NotBothSigned",
      "inputs": []
    },
    {
      "type": "error",
      "name": "NotFunded",
      "inputs": []
    },
    {
      "type": "error",
      "name": "OnlyArbitrator",
      "inputs": []
    },
    {
      "type": "error",
      "name": "OnlyClient",
      "inputs": []
    },
    {
      "type": "error",
      "name": "OnlyClientOrFreelancer",
      "inputs": []
    },
    {
      "type": "error",
      "name": "SplitExceedsMilestone",
      "inputs": []
    },
    {
      "type": "error",
      "name": "UseDepositInstead",
      "inputs": []
    }
  ],
  "bytecode": {
    "object": "0x61016060405234801562000011575f80fd5b5060405162001b0338038062001b03833981016040819052620000349162000471565b6001600160a01b038716620000905760405162461bcd60e51b815260206004820152601960248201527f476967457363726f773a20696e76616c696420636c69656e740000000000000060448201526064015b60405180910390fd5b6001600160a01b038616620000e85760405162461bcd60e51b815260206004820152601d60248201527f476967457363726f773a20696e76616c696420667265656c616e636572000000604482015260640162000087565b856001600160a01b0316876001600160a01b031603620001715760405162461bcd60e51b815260206004820152603b60248201527f476967457363726f773a20636c69656e7420616e6420667265656c616e63657260448201527f2063616e6e6f74206265207468652073616d6520616464726573730000000000606482015260840162000087565b6001600160a01b038216620001c95760405162461bcd60e51b815260206004820181905260248201527f476967457363726f773a20696e76616c69642066656520726563697069656e74604482015260640162000087565b6001600160a01b038116620002215760405162461bcd60e51b815260206004820152601d60248201527f476967457363726f773a20696e76616c69642061726269747261746f72000000604482015260640162000087565b5f845111620002735760405162461bcd60e51b815260206004820152601860248201527f476967457363726f773a206e6f206d696c6573746f6e65730000000000000000604482015260640162000087565b6103e8831115620002c75760405162461bcd60e51b815260206004820152601a60248201527f476967457363726f773a20666565206578636565647320313025000000000000604482015260640162000087565b6001600160a01b0380881660805286811660a05285811660c05261012084905282811660e0528116610100525f805b85518110156200042e575f8682815181106200031657620003166200059c565b602002602001015111620003795760405162461bcd60e51b815260206004820152602360248201527f476967457363726f773a206d696c6573746f6e6520616d6f756e74206973207a60448201526265726f60e81b606482015260840162000087565b8581815181106200038e576200038e6200059c565b602002602001015182620003a39190620005b0565b91506001868281518110620003bc57620003bc6200059c565b6020908102919091018101518254600180820185555f9485528385209091019190915560028054808301825593527f405787fa12a823e0f2b7631cc41b3ba8828b3321ca811111fa75cd3aa3bb5ace918304919091018054601f9093166101000a60ff021990921690915501620002f6565b506101405250620005d695505050505050565b80516001600160a01b038116811462000458575f80fd5b919050565b634e487b7160e01b5f52604160045260245ffd5b5f805f805f805f60e0888a03121562000488575f80fd5b620004938862000441565b96506020620004a4818a0162000441565b9650620004b460408a0162000441565b60608a01519096506001600160401b0380821115620004d1575f80fd5b818b0191508b601f830112620004e5575f80fd5b815181811115620004fa57620004fa6200045d565b8060051b604051601f19603f830116810181811085821117156200052257620005226200045d565b60405291825284820192508381018501918e83111562000540575f80fd5b938501935b82851015620005605784518452938501939285019262000545565b809950505050505050608088015192506200057e60a0890162000441565b91506200058e60c0890162000441565b905092959891949750929550565b634e487b7160e01b5f52603260045260245ffd5b80820180821115620005d057634e487b7160e01b5f52601160045260245ffd5b92915050565b60805160a05160c05160e051610100516101205161014051611417620006ec5f395f8181610201015281816109db01528181610a580152610b2601525f818161032c015261060401525f81816102340152610d2001525f81816103f301526106c201525f81816102880152818161043001528181610476015281816109ad01528181610a8001528181610b510152818161113301526111fc01525f81816102bb01528181610692015281816106ff0152818161079301528181610c0601528181610eed015261102501525f81816101a2015281816104f70152818161075f0152818161094a01528181610b7901528181610bd201528181610ced01528181610f1d01528181610ff1015261107001526114175ff3fe60806040526004361061011e575f3560e01c8063b94c475b1161009d578063db5d6c4111610062578063db5d6c4114610383578063de1acc5c146103a2578063e9945618146103ce578063eb13554f146103e2578063f3a504f214610415575f80fd5b8063b94c475b146102fc578063c58bfb661461031b578063cb1862ec1461034e578063d0e30db014610367578063db2e21bc1461036f575f80fd5b80636cc6cde1116100e35780636cc6cde114610223578063852ea203146102565780639d76ea5814610277578063a37dda2c146102aa578063a5c1674e146102dd575f80fd5b80630681ca55146101405780630b7e88d514610163578063109e94cf1461019157806312065fe0146101dc5780631a39d8ef146101f0575f80fd5b3661013c57604051630189589f60e51b815260040160405180910390fd5b5f80fd5b34801561014b575f80fd5b506002545b6040519081526020015b60405180910390f35b34801561016e575f80fd5b5060035461018190610100900460ff1681565b604051901515815260200161015a565b34801561019c575f80fd5b506101c47f000000000000000000000000000000000000000000000000000000000000000081565b6040516001600160a01b03909116815260200161015a565b3480156101e7575f80fd5b5061015061042d565b3480156101fb575f80fd5b506101507f000000000000000000000000000000000000000000000000000000000000000081565b34801561022e575f80fd5b506101c47f000000000000000000000000000000000000000000000000000000000000000081565b348015610261575f80fd5b50610275610270366004611288565b6104ec565b005b348015610282575f80fd5b506101c47f000000000000000000000000000000000000000000000000000000000000000081565b3480156102b5575f80fd5b506101c47f000000000000000000000000000000000000000000000000000000000000000081565b3480156102e8575f80fd5b506102756102f7366004611288565b610754565b348015610307575f80fd5b50610150610316366004611288565b6108f5565b348015610326575f80fd5b506101507f000000000000000000000000000000000000000000000000000000000000000081565b348015610359575f80fd5b506003546101819060ff1681565b61027561093f565b34801561037a575f80fd5b50610275610bc7565b34801561038e575f80fd5b5061027561039d36600461129f565b610d15565b3480156103ad575f80fd5b506103c16103bc366004611288565b610f87565b60405161015a91906112eb565b3480156103d9575f80fd5b50610275610fe6565b3480156103ed575f80fd5b506101c47f000000000000000000000000000000000000000000000000000000000000000081565b348015610420575f80fd5b505f546101819060ff1681565b5f7f00000000000000000000000000000000000000000000000000000000000000006001600160a01b031661046157504790565b6040516370a0823160e01b81523060048201527f00000000000000000000000000000000000000000000000000000000000000006001600160a01b0316906370a0823190602401602060405180830381865afa1580156104c3573d5f803e3d5ffd5b505050506040513d601f19601f820116820180604052508101906104e79190611305565b905090565b336001600160a01b037f000000000000000000000000000000000000000000000000000000000000000016146105355760405163d6d90f8960e01b815260040160405180910390fd5b5f5460ff1661055757604051636af784dd60e11b815260040160405180910390fd5b6002548190811061057b5760405163fdf4d87360e01b815260040160405180910390fd5b5f6002838154811061058f5761058f61131c565b905f5260205f2090602091828204019190069054906101000a900460ff1660038111156105be576105be6112d7565b146105dc576040516323a244ef60e11b815260040160405180910390fd5b5f600183815481106105f0576105f061131c565b5f91825260208220015491506127106106297f000000000000000000000000000000000000000000000000000000000000000084611344565b6106339190611361565b90505f6106408284611380565b90506001600286815481106106575761065761131c565b905f5260205f2090602091828204019190066101000a81548160ff02191690836003811115610688576106886112d7565b02179055506106b77f000000000000000000000000000000000000000000000000000000000000000082611131565b81156106e7576106e77f000000000000000000000000000000000000000000000000000000000000000083611131565b60408051828152602081018490526001600160a01b037f0000000000000000000000000000000000000000000000000000000000000000169187917f93e901cc5aea20ea9655887d9290a3215a5b3999c024812f4e4b749f7534349c910160405180910390a35050505050565b336001600160a01b037f000000000000000000000000000000000000000000000000000000000000000016148015906107b65750336001600160a01b037f00000000000000000000000000000000000000000000000000000000000000001614155b156107d45760405163f1d22b7560e01b815260040160405180910390fd5b5f5460ff166107f657604051636af784dd60e11b815260040160405180910390fd5b6002548190811061081a5760405163fdf4d87360e01b815260040160405180910390fd5b5f6002838154811061082e5761082e61131c565b905f5260205f2090602091828204019190069054906101000a900460ff16600381111561085d5761085d6112d7565b1461087b576040516323a244ef60e11b815260040160405180910390fd5b600280838154811061088f5761088f61131c565b905f5260205f2090602091828204019190066101000a81548160ff021916908360038111156108c0576108c06112d7565b0217905550604051339083907f84a477df8a28a4276ca6dee4458a06c3015f30c477d9c949ede4e13ff8a552b4905f90a35050565b6002545f908290811061091b5760405163fdf4d87360e01b815260040160405180910390fd5b6001838154811061092e5761092e61131c565b905f5260205f200154915050919050565b336001600160a01b037f000000000000000000000000000000000000000000000000000000000000000016146109885760405163d6d90f8960e01b815260040160405180910390fd5b5f5460ff16156109ab57604051635adf638760e01b815260040160405180910390fd5b7f00000000000000000000000000000000000000000000000000000000000000006001600160a01b0316610a1e577f00000000000000000000000000000000000000000000000000000000000000003414610a195760405163090ac0d760e21b815260040160405180910390fd5b610b14565b3415610a3d57604051630604024f60e21b815260040160405180910390fd5b6040516323b872dd60e01b81523360048201523060248201527f000000000000000000000000000000000000000000000000000000000000000060448201525f907f00000000000000000000000000000000000000000000000000000000000000006001600160a01b0316906323b872dd906064016020604051808303815f875af1158015610ace573d5f803e3d5ffd5b505050506040513d601f19601f82011682018060405250810190610af29190611393565b905080610b1257604051633c9fd93960e21b815260040160405180910390fd5b505b5f805460ff19166001179055604080517f000000000000000000000000000000000000000000000000000000000000000081526001600160a01b037f0000000000000000000000000000000000000000000000000000000000000000811660208301527f000000000000000000000000000000000000000000000000000000000000000016917ffd1cb3e06ec67f05d1020b4dfad39cdb06423270281743cddbe3eeb2c1167996910160405180910390a2565b336001600160a01b037f00000000000000000000000000000000000000000000000000000000000000001614801590610c295750336001600160a01b037f00000000000000000000000000000000000000000000000000000000000000001614155b15610c475760405163f1d22b7560e01b815260040160405180910390fd5b60035460ff161580610c615750600354610100900460ff16155b15610c7f57604051633ee9011760e11b815260040160405180910390fd5b5f610c8861042d565b9050805f03610caa576040516367e3990d60e01b815260040160405180910390fd5b6003805461ffff191690556040518181527fcbba13897c2ac3f7fdb11e857b1a5a5c47f51e3fbeffa74d430f2b06177b45c09060200160405180910390a1610d127f000000000000000000000000000000000000000000000000000000000000000082611131565b50565b336001600160a01b037f00000000000000000000000000000000000000000000000000000000000000001614610d5e57604051631777988560e11b815260040160405180910390fd5b5f5460ff16610d8057604051636af784dd60e11b815260040160405180910390fd5b60025483908110610da45760405163fdf4d87360e01b815260040160405180910390fd5b6002808581548110610db857610db861131c565b905f5260205f2090602091828204019190069054906101000a900460ff166003811115610de757610de76112d7565b14610e0557604051635c118f8b60e01b815260040160405180910390fd5b5f60018581548110610e1957610e1961131c565b5f91825260208220015491508080866002811115610e3957610e396112d7565b03610e4657829150610e97565b6001866002811115610e5a57610e5a6112d7565b03610e66575081610e97565b82851115610e87576040516318e382b560e01b815260040160405180910390fd5b849150610e948284611380565b90505b600360028881548110610eac57610eac61131c565b905f5260205f2090602091828204019190066101000a81548160ff02191690836003811115610edd57610edd6112d7565b02179055508115610f1257610f127f000000000000000000000000000000000000000000000000000000000000000083611131565b8015610f4257610f427f000000000000000000000000000000000000000000000000000000000000000082611131565b867faf541d32d08f610bc972c187e7df44798be3b0312f37495ac0513e31eff6467e878484604051610f76939291906113b9565b60405180910390a250505050505050565b6002545f9082908110610fad5760405163fdf4d87360e01b815260040160405180910390fd5b60028381548110610fc057610fc061131c565b905f5260205f2090602091828204019190069054906101000a900460ff16915050919050565b336001600160a01b037f000000000000000000000000000000000000000000000000000000000000000016148015906110485750336001600160a01b037f00000000000000000000000000000000000000000000000000000000000000001614155b156110665760405163f1d22b7560e01b815260040160405180910390fd5b6001600160a01b037f00000000000000000000000000000000000000000000000000000000000000001633036110cc5760035460ff16156110ba5760405163585eb56560e11b815260040160405180910390fd5b6003805460ff19166001179055611105565b600354610100900460ff16156110f55760405163585eb56560e11b815260040160405180910390fd5b6003805461ff0019166101001790555b60405133907f257a7e1003ab7197c6aedb9a69d812fef879fef3226f18f621eedcfffa4fc6f3905f90a2565b7f00000000000000000000000000000000000000000000000000000000000000006001600160a01b03166111d4575f826001600160a01b0316826040515f6040518083038185875af1925050503d805f81146111a8576040519150601f19603f3d011682016040523d82523d5f602084013e6111ad565b606091505b50509050806111cf5760405163b12d13eb60e01b815260040160405180910390fd5b505050565b60405163a9059cbb60e01b81526001600160a01b038381166004830152602482018390525f917f00000000000000000000000000000000000000000000000000000000000000009091169063a9059cbb906044016020604051808303815f875af1158015611244573d5f803e3d5ffd5b505050506040513d601f19601f820116820180604052508101906112689190611393565b9050806111cf57604051633c9fd93960e21b815260040160405180910390fd5b5f60208284031215611298575f80fd5b5035919050565b5f805f606084860312156112b1575f80fd5b833592506020840135600381106112c6575f80fd5b929592945050506040919091013590565b634e487b7160e01b5f52602160045260245ffd5b60208101600483106112ff576112ff6112d7565b91905290565b5f60208284031215611315575f80fd5b5051919050565b634e487b7160e01b5f52603260045260245ffd5b634e487b7160e01b5f52601160045260245ffd5b808202811582820484141761135b5761135b611330565b92915050565b5f8261137b57634e487b7160e01b5f52601260045260245ffd5b500490565b8181038181111561135b5761135b611330565b5f602082840312156113a3575f80fd5b815180151581146113b2575f80fd5b9392505050565b60608101600385106113cd576113cd6112d7565b93815260208101929092526040909101529056fea26469706673582212204f0bd03ec4767f7a2a1e8db61063b8805ad9759d93bf6fa39a64f5d03026ccd764736f6c63430008180033",
    "linkReferences": {}
  },
  "methodIdentifiers": {
    "arbitrator()": "6cc6cde1",
    "client()": "109e94cf",
    "clientSignedEmergency()": "cb1862ec",
    "completeMilestone(uint256)": "852ea203",
    "deposit()": "d0e30db0",
    "emergencyWithdraw()": "db2e21bc",
    "freelancer()": "a37dda2c",
    "freelancerSignedEmergency()": "0b7e88d5",
    "funded()": "f3a504f2",
    "getBalance()": "12065fe0",
    "getMilestoneAmount(uint256)": "b94c475b",
    "getMilestoneStatus(uint256)": "de1acc5c",
    "milestoneCount()": "0681ca55",
    "platformFeeBasisPoints()": "c58bfb66",
    "platformFeeRecipient()": "eb13554f",
    "raiseDispute(uint256)": "a5c1674e",
    "resolveDispute(uint256,uint8,uint256)": "db5d6c41",
    "signEmergencyWithdrawal()": "e9945618",
    "tokenAddress()": "9d76ea58",
    "totalAmount()": "1a39d8ef"
  },
  "id": 23
}