{
  "abi": [
    {
      "type": "constructor",
      "inputs": [
        {
          "name": "_client",
          "type": "address",
          "internalType": "address"
        },
        {
          "name": "_freelancer",
          "type": "address",
          "internalType": "address"
        },
        {
          "name": "_arbitrator",
          "type": "address",
          "internalType": "address"
        },
        {
          "name": "amounts_",
          "type": "uint256[]",
          "internalType": "uint256[]"
        }
      ],
      "stateMutability": "nonpayable"
    },
    {
      "type": "fallback",
      "stateMutability": "payable"
    },
    {
      "type": "receive",
      "stateMutability": "payable"
    },
    {
      "type": "function",
      "name": "approveEmergencyWithdraw",
      "inputs": [],
      "outputs": [],
      "stateMutability": "nonpayable"
    },
    {
      "type": "function",
      "name": "arbitrator",
      "inputs": [],
      "outputs": [
        {
          "name": "",
          "type": "address",
          "internalType": "address"
        }
      ],
      "stateMutability": "view"
    },
    {
      "type": "function",
      "name": "client",
      "inputs": [],
      "outputs": [
        {
          "name": "",
          "type": "address",
          "internalType": "address"
        }
      ],
      "stateMutability": "view"
    },
    {
      "type": "function",
      "name": "completeMilestone",
      "inputs": [
        {
          "name": "index",
          "type": "uint256",
          "internalType": "uint256"
        }
      ],
      "outputs": [],
      "stateMutability": "nonpayable"
    },
    {
      "type": "function",
      "name": "deposit",
      "inputs": [],
      "outputs": [],
      "stateMutability": "payable"
    },
    {
      "type": "function",
      "name": "emergencyApprovals",
      "inputs": [
        {
          "name": "",
          "type": "address",
          "internalType": "address"
        }
      ],
      "outputs": [
        {
          "name": "",
          "type": "bool",
          "internalType": "bool"
        }
      ],
      "stateMutability": "view"
    },
    {
      "type": "function",
      "name": "emergencyWithdraw",
      "inputs": [],
      "outputs": [],
      "stateMutability": "nonpayable"
    },
    {
      "type": "function",
      "name": "freelancer",
      "inputs": [],
      "outputs": [
        {
          "name": "",
          "type": "address",
          "internalType": "address"
        }
      ],
      "stateMutability": "view"
    },
    {
      "type": "function",
      "name": "funded",
      "inputs": [],
      "outputs": [
        {
          "name": "",
          "type": "bool",
          "internalType": "bool"
        }
      ],
      "stateMutability": "view"
    },
    {
      "type": "function",
      "name": "getBalance",
      "inputs": [],
      "outputs": [
        {
          "name": "",
          "type": "uint256",
          "internalType": "uint256"
        }
      ],
      "stateMutability": "view"
    },
    {
      "type": "function",
      "name": "getMilestone",
      "inputs": [
        {
          "name": "index",
          "type": "uint256",
          "internalType": "uint256"
        }
      ],
      "outputs": [
        {
          "name": "status",
          "type": "uint8",
          "internalType": "enum IGigEscrow.MilestoneStatus"
        },
        {
          "name": "amount",
          "type": "uint256",
          "internalType": "uint256"
        }
      ],
      "stateMutability": "view"
    },
    {
      "type": "function",
      "name": "milestoneCount",
      "inputs": [],
      "outputs": [
        {
          "name": "",
          "type": "uint256",
          "internalType": "uint256"
        }
      ],
      "stateMutability": "view"
    },
    {
      "type": "function",
      "name": "raiseDispute",
      "inputs": [
        {
          "name": "index",
          "type": "uint256",
          "internalType": "uint256"
        }
      ],
      "outputs": [],
      "stateMutability": "nonpayable"
    },
    {
      "type": "function",
      "name": "resolveDispute",
      "inputs": [
        {
          "name": "index",
          "type": "uint256",
          "internalType": "uint256"
        },
        {
          "name": "payFreelancer",
          "type": "bool",
          "internalType": "bool"
        }
      ],
      "outputs": [],
      "stateMutability": "nonpayable"
    },
    {
      "type": "function",
      "name": "totalAmount",
      "inputs": [],
      "outputs": [
        {
          "name": "",
          "type": "uint256",
          "internalType": "uint256"
        }
      ],
      "stateMutability": "view"
    },
    {
      "type": "event",
      "name": "DisputeRaised",
      "inputs": [
        {
          "name": "index",
          "type": "uint256",
          "indexed": true,
          "internalType": "uint256"
        },
        {
          "name": "raisedBy",
          "type": "address",
          "indexed": true,
          "internalType": "address"
        }
      ],
      "anonymous": false
    },
    {
      "type": "event",
      "name": "DisputeResolved",
      "inputs": [
        {
          "name": "index",
          "type": "uint256",
          "indexed": true,
          "internalType": "uint256"
        },
        {
          "name": "paidFreelancer",
          "type": "bool",
          "indexed": false,
          "internalType": "bool"
        },
        {
          "name": "amount",
          "type": "uint256",
          "indexed": false,
          "internalType": "uint256"
        }
      ],
      "anonymous": false
    },
    {
      "type": "event",
      "name": "EmergencyWithdrawApproved",
      "inputs": [
        {
          "name": "approver",
          "type": "address",
          "indexed": true,
          "internalType": "address"
        }
      ],
      "anonymous": false
    },
    {
      "type": "event",
      "name": "EmergencyWithdrawExecuted",
      "inputs": [
        {
          "name": "clientRefund",
          "type": "uint256",
          "indexed": false,
          "internalType": "uint256"
        },
        {
          "name": "freelancerAmount",
          "type": "uint256",
          "indexed": false,
          "internalType": "uint256"
        }
      ],
      "anonymous": false
    },
    {
      "type": "event",
      "name": "EscrowFunded",
      "inputs": [
        {
          "name": "escrow",
          "type": "address",
          "indexed": true,
          "internalType": "address"
        },
        {
          "name": "totalAmount",
          "type": "uint256",
          "indexed": false,
          "internalType": "uint256"
        }
      ],
      "anonymous": false
    },
    {
      "type": "event",
      "name": "MilestoneCompleted",
      "inputs": [
        {
          "name": "index",
          "type": "uint256",
          "indexed": true,
          "internalType": "uint256"
        },
        {
          "name": "freelancer",
          "type": "address",
          "indexed": true,
          "internalType": "address"
        },
        {
          "name": "amount",
          "type": "uint256",
          "indexed": false,
          "internalType": "uint256"
        }
      ],
      "anonymous": false
    }
  ],
  "bytecode": {
    "object": "0x61010060405234801562000011575f80fd5b50604051620019b8380380620019b88339810160408190526200003491620003ae565b6001600160a01b038416620000905760405162461bcd60e51b815260206004820152601e60248201527f476967457363726f773a207a65726f20636c69656e742061646472657373000060448201526064015b60405180910390fd5b6001600160a01b038316620000f35760405162461bcd60e51b815260206004820152602260248201527f476967457363726f773a207a65726f20667265656c616e636572206164647265604482015261737360f01b606482015260840162000087565b6001600160a01b038216620001565760405162461bcd60e51b815260206004820152602260248201527f476967457363726f773a207a65726f2061726269747261746f72206164647265604482015261737360f01b606482015260840162000087565b826001600160a01b0316846001600160a01b031603620001c55760405162461bcd60e51b815260206004820152602360248201527f476967457363726f773a20636c69656e7420657175616c7320667265656c616e60448201526231b2b960e91b606482015260840162000087565b5f815111620002175760405162461bcd60e51b815260206004820152601860248201527f476967457363726f773a206e6f206d696c6573746f6e65730000000000000000604482015260640162000087565b6001600160a01b0380851660805283811660a052821660c0525f805b82518110156200036f575f838281518110620002535762000253620004aa565b602002602001015111620002ba5760405162461bcd60e51b815260206004820152602760248201527f476967457363726f773a206d696c6573746f6e6520616d6f756e74206d7573746044820152660206265203e20360cc1b606482015260840162000087565b828181518110620002cf57620002cf620004aa565b602002602001015182620002e49190620004be565b91506001838281518110620002fd57620002fd620004aa565b6020908102919091018101518254600180820185555f9485528385209091019190915560028054808301825593527f405787fa12a823e0f2b7631cc41b3ba8828b3321ca811111fa75cd3aa3bb5ace918304919091018054601f9093166101000a60ff02199092169091550162000233565b5060e05250620004e492505050565b80516001600160a01b038116811462000395575f80fd5b919050565b634e487b7160e01b5f52604160045260245ffd5b5f805f8060808587031215620003c2575f80fd5b620003cd856200037e565b93506020620003de8187016200037e565b9350620003ee604087016200037e565b60608701519093506001600160401b03808211156200040b575f80fd5b818801915088601f8301126200041f575f80fd5b8151818111156200043457620004346200039a565b8060051b604051601f19603f830116810181811085821117156200045c576200045c6200039a565b60405291825284820192508381018501918b8311156200047a575f80fd5b938501935b828510156200049a578451845293850193928501926200047f565b989b979a50959850505050505050565b634e487b7160e01b5f52603260045260245ffd5b80820180821115620004de57634e487b7160e01b5f52601160045260245ffd5b92915050565b60805160a05160c05160e051611430620005885f395f81816102090152610f2e01525f81816102a00152818161042b015261097101525f81816102f2015281816105fe0152818161082601528181610b3901528181610bc701528181610c6b015261106001525f81816101af015281816106de015281816107f40152818161093f01528181610c3901528181610e4a0152818161101e015261110101526114305ff3fe6080604052600436106100eb575f3560e01c80636cc6cde111610089578063c00d73fa11610058578063c00d73fa14610333578063d0e30db014610371578063db2e21bc14610379578063f3a504f21461038d57610138565b80636cc6cde11461028f578063852ea203146102c2578063a37dda2c146102e1578063a5c1674e1461031457610138565b80631a39d8ef116100c55780631a39d8ef146101fb5780632442e1cb1461022d57806334b25ee21461025a5780636c0304c91461027b57610138565b80630681ca551461017b578063109e94cf1461019e57806312065fe0146101e957610138565b366101385760405162461bcd60e51b8152602060048201526018602482015277476967457363726f773a20757365206465706f736974282960401b60448201526064015b60405180910390fd5b60405162461bcd60e51b8152602060048201526018602482015277476967457363726f773a20757365206465706f736974282960401b604482015260640161012f565b348015610186575f80fd5b506001545b6040519081526020015b60405180910390f35b3480156101a9575f80fd5b506101d17f000000000000000000000000000000000000000000000000000000000000000081565b6040516001600160a01b039091168152602001610195565b3480156101f4575f80fd5b504761018b565b348015610206575f80fd5b507f000000000000000000000000000000000000000000000000000000000000000061018b565b348015610238575f80fd5b5061024c61024736600461120f565b6103a5565b60405161019592919061123a565b348015610265575f80fd5b50610279610274366004611264565b610420565b005b348015610286575f80fd5b506102796107e9565b34801561029a575f80fd5b506101d17f000000000000000000000000000000000000000000000000000000000000000081565b3480156102cd575f80fd5b506102796102dc36600461120f565b610934565b3480156102ec575f80fd5b506101d17f000000000000000000000000000000000000000000000000000000000000000081565b34801561031f575f80fd5b5061027961032e36600461120f565b610c2e565b34801561033e575f80fd5b5061036161034d366004611296565b60036020525f908152604090205460ff1681565b6040519015158152602001610195565b610279610e3f565b348015610384575f80fd5b50610279610ff1565b348015610398575f80fd5b505f546103619060ff1681565b6001545f90819083106103ca5760405162461bcd60e51b815260040161012f906112c3565b600283815481106103dd576103dd611305565b905f5260205f2090602091828204019190069054906101000a900460ff166001848154811061040e5761040e611305565b905f5260205f20015491509150915091565b336001600160a01b037f000000000000000000000000000000000000000000000000000000000000000016146104a45760405162461bcd60e51b815260206004820152602360248201527f476967457363726f773a2063616c6c6572206973206e6f7420617262697472616044820152623a37b960e91b606482015260840161012f565b60045460ff16156104c75760405162461bcd60e51b815260040161012f90611319565b60015482106104e85760405162461bcd60e51b815260040161012f906112c3565b60028083815481106104fc576104fc611305565b905f5260205f2090602091828204019190069054906101000a900460ff16600381111561052b5761052b611226565b1461058b5760405162461bcd60e51b815260206004820152602a60248201527f476967457363726f773a206d696c6573746f6e65206e6f7420696e20444953506044820152695554454420737461746560b01b606482015260840161012f565b5f6001838154811061059f5761059f611305565b905f5260205f20015490508115610690576001600284815481106105c5576105c5611305565b905f5260205f2090602091828204019190066101000a81548160ff021916908360038111156105f6576105f6611226565b02179055505f7f00000000000000000000000000000000000000000000000000000000000000006001600160a01b0316826040515f6040518083038185875af1925050503d805f8114610664576040519150601f19603f3d011682016040523d82523d5f602084013e610669565b606091505b505090508061068a5760405162461bcd60e51b815260040161012f90611369565b506107a7565b6003600284815481106106a5576106a5611305565b905f5260205f2090602091828204019190066101000a81548160ff021916908360038111156106d6576106d6611226565b02179055505f7f00000000000000000000000000000000000000000000000000000000000000006001600160a01b0316826040515f6040518083038185875af1925050503d805f8114610744576040519150601f19603f3d011682016040523d82523d5f602084013e610749565b606091505b50509050806107a55760405162461bcd60e51b815260206004820152602260248201527f476967457363726f773a20726566756e6420746f20636c69656e74206661696c604482015261195960f21b606482015260840161012f565b505b6040805183151581526020810183905284917f5add0b1fc2a3dfd95be33d1d5feb6709087e50213b7a73c3c3b2c387001221e7910160405180910390a2505050565b336001600160a01b037f00000000000000000000000000000000000000000000000000000000000000001614806108485750336001600160a01b037f000000000000000000000000000000000000000000000000000000000000000016145b6108945760405162461bcd60e51b815260206004820181905260248201527f476967457363726f773a2063616c6c6572206973206e6f742061207061727479604482015260640161012f565b335f9081526003602052604090205460ff16156108f35760405162461bcd60e51b815260206004820152601b60248201527f476967457363726f773a20616c726561647920617070726f7665640000000000604482015260640161012f565b335f81815260036020526040808220805460ff19166001179055517fc7ad78c03e6ac32d9f43660657fc4de48a9f9c3d10d4554d80b0d472485139f19190a2565b336001600160a01b037f00000000000000000000000000000000000000000000000000000000000000001614806109935750336001600160a01b037f000000000000000000000000000000000000000000000000000000000000000016145b6109df5760405162461bcd60e51b815260206004820152601760248201527f476967457363726f773a20756e617574686f72697a6564000000000000000000604482015260640161012f565b60045460ff1615610a025760405162461bcd60e51b815260040161012f90611319565b5f5460ff16610a4b5760405162461bcd60e51b815260206004820152601560248201527411da59d15cd8dc9bddce881b9bdd08199d5b991959605a1b604482015260640161012f565b6001548110610a6c5760405162461bcd60e51b815260040161012f906112c3565b5f60028281548110610a8057610a80611305565b905f5260205f2090602091828204019190069054906101000a900460ff166003811115610aaf57610aaf611226565b14610acc5760405162461bcd60e51b815260040161012f906113b1565b5f60018281548110610ae057610ae0611305565b905f5260205f2001549050600160028381548110610b0057610b00611305565b905f5260205f2090602091828204019190066101000a81548160ff02191690836003811115610b3157610b31611226565b02179055505f7f00000000000000000000000000000000000000000000000000000000000000006001600160a01b0316826040515f6040518083038185875af1925050503d805f8114610b9f576040519150601f19603f3d011682016040523d82523d5f602084013e610ba4565b606091505b5050905080610bc55760405162461bcd60e51b815260040161012f90611369565b7f00000000000000000000000000000000000000000000000000000000000000006001600160a01b0316837f785f24b6a98eafa7fd61a09cf31775b7bbc039cc966c9c6fad18743e13a9e1ea84604051610c2191815260200190565b60405180910390a3505050565b336001600160a01b037f0000000000000000000000000000000000000000000000000000000000000000161480610c8d5750336001600160a01b037f000000000000000000000000000000000000000000000000000000000000000016145b610cd95760405162461bcd60e51b815260206004820181905260248201527f476967457363726f773a2063616c6c6572206973206e6f742061207061727479604482015260640161012f565b60045460ff1615610cfc5760405162461bcd60e51b815260040161012f90611319565b5f5460ff16610d455760405162461bcd60e51b815260206004820152601560248201527411da59d15cd8dc9bddce881b9bdd08199d5b991959605a1b604482015260640161012f565b6001548110610d665760405162461bcd60e51b815260040161012f906112c3565b5f60028281548110610d7a57610d7a611305565b905f5260205f2090602091828204019190069054906101000a900460ff166003811115610da957610da9611226565b14610dc65760405162461bcd60e51b815260040161012f906113b1565b6002808281548110610dda57610dda611305565b905f5260205f2090602091828204019190066101000a81548160ff02191690836003811115610e0b57610e0b611226565b0217905550604051339082907f84a477df8a28a4276ca6dee4458a06c3015f30c477d9c949ede4e13ff8a552b4905f90a350565b336001600160a01b037f00000000000000000000000000000000000000000000000000000000000000001614610eb75760405162461bcd60e51b815260206004820152601f60248201527f476967457363726f773a2063616c6c6572206973206e6f7420636c69656e7400604482015260640161012f565b60045460ff1615610eda5760405162461bcd60e51b815260040161012f90611319565b5f5460ff1615610f2c5760405162461bcd60e51b815260206004820152601960248201527f476967457363726f773a20616c72656164792066756e64656400000000000000604482015260640161012f565b7f00000000000000000000000000000000000000000000000000000000000000003414610fa75760405162461bcd60e51b815260206004820152602360248201527f476967457363726f773a20696e636f7272656374206465706f73697420616d6f6044820152621d5b9d60ea1b606482015260840161012f565b5f805460ff1916600117905560405130907f511c3b325f63024e6754176648b89f4bab878b1712366d9bf3729c501dcbad7990610fe79034815260200190565b60405180910390a2565b60045460ff16156110145760405162461bcd60e51b815260040161012f90611319565b6001600160a01b037f0000000000000000000000000000000000000000000000000000000000000000165f9081526003602052604090205460ff16801561109257506001600160a01b037f0000000000000000000000000000000000000000000000000000000000000000165f9081526003602052604090205460ff165b6110ea5760405162461bcd60e51b8152602060048201526024808201527f476967457363726f773a20626f74682070617274696573206d75737420617070604482015263726f766560e01b606482015260840161012f565b6004805460ff191660011790554780156111d4575f7f00000000000000000000000000000000000000000000000000000000000000006001600160a01b0316826040515f6040518083038185875af1925050503d805f8114611167576040519150601f19603f3d011682016040523d82523d5f602084013e61116c565b606091505b50509050806111d25760405162461bcd60e51b815260206004820152602c60248201527f476967457363726f773a20656d657267656e637920726566756e6420746f206360448201526b1b1a595b9d0819985a5b195960a21b606482015260840161012f565b505b604080518281525f60208201527f6c7180f0ae61d4344d7d15bb00641184202a73b189564aeb59973c3534217832910160405180910390a150565b5f6020828403121561121f575f80fd5b5035919050565b634e487b7160e01b5f52602160045260245ffd5b604081016004841061125a57634e487b7160e01b5f52602160045260245ffd5b9281526020015290565b5f8060408385031215611275575f80fd5b823591506020830135801515811461128b575f80fd5b809150509250929050565b5f602082840312156112a6575f80fd5b81356001600160a01b03811681146112bc575f80fd5b9392505050565b60208082526022908201527f476967457363726f773a20696e76616c6964206d696c6573746f6e6520696e646040820152610caf60f31b606082015260800190565b634e487b7160e01b5f52603260045260245ffd5b60208082526030908201527f476967457363726f773a20656d657267656e6379207769746864726177616c2060408201526f185b1c9958591e48195e1958dd5d195960821b606082015260800190565b60208082526028908201527f476967457363726f773a207472616e7366657220746f20667265656c616e63656040820152671c8819985a5b195960c21b606082015260800190565b60208082526029908201527f476967457363726f773a206d696c6573746f6e65206e6f7420696e2050454e44604082015268494e4720737461746560b81b60608201526080019056fea26469706673582212200b8146e00beef22717af213846e9eb0b2c2e89a27aeb9df0649a6784bf87c29c64736f6c63430008180033",
    "linkReferences": {}
  },
  "methodIdentifiers": {
    "approveEmergencyWithdraw()": "6c0304c9",
    "arbitrator()": "6cc6cde1",
    "client()": "109e94cf",
    "completeMilestone(uint256)": "852ea203",
    "deposit()": "d0e30db0",
    "emergencyApprovals(address)": "c00d73fa",
    "emergencyWithdraw()": "db2e21bc",
    "freelancer()": "a37dda2c",
    "funded()": "f3a504f2",
    "getBalance()": "12065fe0",
    "getMilestone(uint256)": "2442e1cb",
    "milestoneCount()": "0681ca55",
    "raiseDispute(uint256)": "a5c1674e",
    "resolveDispute(uint256,bool)": "34b25ee2",
    "totalAmount()": "1a39d8ef"
  },
  "id": 20
}