{
  "abi": [
    {
      "type": "constructor",
      "inputs": [],
      "stateMutability": "nonpayable"
    },
    {
      "type": "function",
      "name": "acceptOwnership",
      "inputs": [],
      "outputs": [],
      "stateMutability": "nonpayable"
    },
    {
      "type": "function",
      "name": "aiScoreSum",
      "inputs": [
        {
          "name": "freelancer",
          "type": "address",
          "internalType": "address"
        }
      ],
      "outputs": [
        {
          "name": "",
          "type": "uint256",
          "internalType": "uint256"
        }
      ],
      "stateMutability": "view"
    },
    {
      "type": "function",
      "name": "averageAiScore",
      "inputs": [
        {
          "name": "freelancer",
          "type": "address",
          "internalType": "address"
        }
      ],
      "outputs": [
        {
          "name": "",
          "type": "uint256",
          "internalType": "uint256"
        }
      ],
      "stateMutability": "view"
    },
    {
      "type": "function",
      "name": "gigsCompleted",
      "inputs": [
        {
          "name": "freelancer",
          "type": "address",
          "internalType": "address"
        }
      ],
      "outputs": [
        {
          "name": "",
          "type": "uint256",
          "internalType": "uint256"
        }
      ],
      "stateMutability": "view"
    },
    {
      "type": "function",
      "name": "owner",
      "inputs": [],
      "outputs": [
        {
          "name": "",
          "type": "address",
          "internalType": "address"
        }
      ],
      "stateMutability": "view"
    },
    {
      "type": "function",
      "name": "pendingOwner",
      "inputs": [],
      "outputs": [
        {
          "name": "",
          "type": "address",
          "internalType": "address"
        }
      ],
      "stateMutability": "view"
    },
    {
      "type": "function",
      "name": "proposeOwner",
      "inputs": [
        {
          "name": "newOwner",
          "type": "address",
          "internalType": "address"
        }
      ],
      "outputs": [],
      "stateMutability": "nonpayable"
    },
    {
      "type": "function",
      "name": "recordCompletion",
      "inputs": [
        {
          "name": "freelancer",
          "type": "address",
          "internalType": "address"
        },
        {
          "name": "earned",
          "type": "uint256",
          "internalType": "uint256"
        },
        {
          "name": "aiScore",
          "type": "uint256",
          "internalType": "uint256"
        }
      ],
      "outputs": [],
      "stateMutability": "nonpayable"
    },
    {
      "type": "function",
      "name": "totalEarned",
      "inputs": [
        {
          "name": "freelancer",
          "type": "address",
          "internalType": "address"
        }
      ],
      "outputs": [
        {
          "name": "",
          "type": "uint256",
          "internalType": "uint256"
        }
      ],
      "stateMutability": "view"
    },
    {
      "type": "event",
      "name": "OwnershipTransferProposed",
      "inputs": [
        {
          "name": "currentOwner",
          "type": "address",
          "indexed": true,
          "internalType": "address"
        },
        {
          "name": "pendingOwner",
          "type": "address",
          "indexed": true,
          "internalType": "address"
        }
      ],
      "anonymous": false
    },
    {
      "type": "event",
      "name": "OwnershipTransferred",
      "inputs": [
        {
          "name": "previousOwner",
          "type": "address",
          "indexed": true,
          "internalType": "address"
        },
        {
          "name": "newOwner",
          "type": "address",
          "indexed": true,
          "internalType": "address"
        }
      ],
      "anonymous": false
    },
    {
      "type": "event",
      "name": "ReputationUpdated",
      "inputs": [
        {
          "name": "freelancer",
          "type": "address",
          "indexed": true,
          "internalType": "address"
        },
        {
          "name": "gigsCompleted",
          "type": "uint256",
          "indexed": false,
          "internalType": "uint256"
        },
        {
          "name": "totalEarned",
          "type": "uint256",
          "indexed": false,
          "internalType": "uint256"
        },
        {
          "name": "averageAiScore",
          "type": "uint256",
          "indexed": false,
          "internalType": "uint256"
        }
      ],
      "anonymous": false
    },
    {
      "type": "error",
      "name": "InvalidAiScore",
      "inputs": []
    },
    {
      "type": "error",
      "name": "OnlyOwner",
      "inputs": []
    },
    {
      "type": "error",
      "name": "OnlyPendingOwner",
      "inputs": []
    },
    {
      "type": "error",
      "name": "ZeroAddress",
      "inputs": []
    }
  ],
  "bytecode": {
    "object": "0x608060405234801561000f575f80fd5b505f80546001600160a01b0319163317905561052a8061002e5f395ff3fe608060405234801561000f575f80fd5b5060043610610090575f3560e01c80638da5cb5b116100635780638da5cb5b14610130578063b5ed298a1461015a578063bf43a2f51461016d578063e30c397814610180578063eee479d414610193575f80fd5b806362bff8d514610094578063649aca4a146100d3578063708121f8146100fe57806379ba509714610126575b5f80fd5b6100c06100a2366004610467565b6001600160a01b03165f908152600260208190526040909120015490565b6040519081526020015b60405180910390f35b6100c06100e1366004610467565b6001600160a01b03165f9081526002602052604090206001015490565b6100c061010c366004610467565b6001600160a01b03165f9081526002602052604090205490565b61012e6101a6565b005b5f54610142906001600160a01b031681565b6040516001600160a01b0390911681526020016100ca565b61012e610168366004610467565b61022a565b61012e61017b366004610480565b6102cb565b600154610142906001600160a01b031681565b6100c06101a1366004610467565b61040d565b6001546001600160a01b031633146101d1576040516303c25d1960e61b815260040160405180910390fd5b5f8054600180546001600160a01b038082166001600160a01b031980861682178755909216909255604051919092169283917f8be0079c531659141344cd1fd0a4f28419497f9722a3daafe3b4186f6b6457e09190a350565b5f546001600160a01b0316331461025457604051635fc483c560e01b815260040160405180910390fd5b6001600160a01b03811661027b5760405163d92e233d60e01b815260040160405180910390fd5b600180546001600160a01b0319166001600160a01b038381169182179092555f8054604051929316917ff4e75b79500ab730f8a026ed3cba6d55331bcb64c9e9f60c548e371356e5e3c09190a350565b5f546001600160a01b031633146102f557604051635fc483c560e01b815260040160405180910390fd5b6001600160a01b03831661031c5760405163d92e233d60e01b815260040160405180910390fd5b606481111561033e576040516324136dfd60e11b815260040160405180910390fd5b6001600160a01b0383165f9081526002602052604081208054909160019183919061036a9084906104b0565b9250508190555082816001015f82825461038491906104b0565b9250508190555081816002015f82825461039e91906104b0565b90915550508054600182015460028301546001600160a01b038716927fc2fd17ad7e9f23b8607f0bd02d7a6cdcccd5a964fa99ce5a066ed34c5b4bb55b9290916103e99083906104d5565b6040805193845260208401929092529082015260600160405180910390a250505050565b6001600160a01b0381165f9081526002602052604081208054820361043457505f92915050565b8054600282015461044591906104d5565b9392505050565b80356001600160a01b0381168114610462575f80fd5b919050565b5f60208284031215610477575f80fd5b6104458261044c565b5f805f60608486031215610492575f80fd5b61049b8461044c565b95602085013595506040909401359392505050565b808201808211156104cf57634e487b7160e01b5f52601160045260245ffd5b92915050565b5f826104ef57634e487b7160e01b5f52601260045260245ffd5b50049056fea26469706673582212204ef04bbebefcc9d8586b1d2b7b2d90655f2a7c375a1f4563575890a1527ba07864736f6c63430008180033",
    "linkReferences": {}
  },
  "methodIdentifiers": {
    "acceptOwnership()": "79ba5097",
    "aiScoreSum(address)": "62bff8d5",
    "averageAiScore(address)": "eee479d4",
    "gigsCompleted(address)": "708121f8",
    "owner()": "8da5cb5b",
    "pendingOwner()": "e30c3978",
    "proposeOwner(address)": "b5ed298a",
    "recordCompletion(address,uint256,uint256)": "bf43a2f5",
    "totalEarned(address)": "649aca4a"
  },
  "id": 19
}